:020000040800F2
:10C0000020050020A9C100080FCE00086FCC000851
:10C010000DCE0008B5C2000839D4000800000000A9
:10C020000000000000000000000000000FD2000827
:10C03000B7C20008000000000DD2000811D20008AD
:10C04000C3C10008C3C10008C3C10008C3C10008C0
:10C05000C3C10008C3C10008C3C10008C3C10008B0
:10C06000C3C10008C3C10008C3C10008C3C10008A0
:10C07000C3C10008C3C10008C3C10008C3C1000890
:10C08000C3C10008C3C10008C3C10008000000000C
:10C09000000000000000000000000000C3C1000814
:10C0A000C3C10008C3C10008C3C10008C3C1000860
:10C0B000C3C10008C3C10008C3C10008C3C1000850
:10C0C000C3C10008C3C10008C3C10008C3C1000840
:10C0D000C3C100080DD40008C3C10008000000005F
:10C0E000C3C10008C3C10008C3C1000800000000AC
:10C0F000000000000000000000000000C3C10008B4
:10C1000000000000C3C10008C3C10008C3C100088B
:10C11000000000000000000000000000000000001F
:10C12000C3C10008C3C10008C3C10008C3C10008DF
:10C13000C3C1000800000000000000000000000073
:10C14000000000000000000000000000C3C1000863
:10C15000C3C10008C3C10008C3C10008C3C10008AF
:10C16000C3C10008C3C100080000000000000000B7
:10C1700000000000000000000000000000000000BF
:10C1800000000000C3C10008000000000000000023
:10C19000C3C10008DFF80CD000F07AF8004800476F
:10C1A000DDD40008200500200648804706480047E7
:10C1B000FEE7FEE7FEE7FEE7FEE7FEE7FEE7FEE757
:10C1C000FEE7FEE799D2000895C100082DE9F05F6F
:10C1D0000546002092469B468846064681464024F6
:10C1E0001BE0284641464746224600F041F85346A8
:10C1F0005A46C01A914110D311461846224600F003
:10C2000028F82D1A67EB01084F462246012000212D
:10C2100000F01FF817EB00094E41201EA4F10104A5
:10C22000DFDC484631462A464346BDE8F09FD2B29D
:10C2300001E000F8012B491EFBD270470022F6E70F
:10C2400010B513460A4604461946FFF7F0FF20468C
:10C2500010BD202A04DB203A00FA02F100207047CA
:10C260009140C2F1200320FA03F319439040704734
:10C27000202A04DB203A21FA02F00021704721FA3B
:10C2800002F3D040C2F120029140084319467047A2
:10C29000064C074D06E0E06840F0010394E8070013
:10C2A00098471034AC42F6D3FFF778FF58DD00080A
:10C2B00078DD0008FEE7704790F83510022903D0BA
:10C2C0008021416501207047052180F83510006804
:10C2D000016821F0010101600020704770B504463B
:10C2E00000F0DEF80546601C02D0044800780444E3
:10C2F00000F0D6F8401BA042FAD370BD0000002029
:10C300002DE9F84FDFF860B100224FF001084FF03F
:10C31000030A4FF00F090BF1040E00BF0B6808FA77
:10C3200002F42340A3426ED14D68022D01D0122D9C
:10C330000ED1D50800EB850CDCF820505607F70E1F
:10C3400009FA07F6B5430E69BE402E43CCF82060CB
:10C35000066855000F790AFA05FC07F0030726EA7C
:10C360000C06AF40374307604E68012E05D0022E01
:10C3700003D0112E01D0122E0ED18668CF6826EA86
:10C380000C06AF40374387604668A6430C79C4F378
:10C390000014944034434460C6688C6826EA0C0656
:10C3A000AC403443C4604C68E40056D52F4C25683B
:10C3B00045F480452560246822F0030504F4804498
:10C3C00000942B4C2E19D6F8084895072F0F09FA20
:10C3D00007F5AC43274DA84201D1002515E0264DB5
:10C3E000A84201D1012510E0244DA84201D1022527
:10C3F0000BE0234DA84201D1032506E0214DA842C0
:10C4000002D1042501E028E00725BD402543C6F8F8
:10C410000858DBF800405D464E689C43F60300D5A3
:10C420001C432C60DEF8004075464E689C43B60302
:10C4300000D51C432C600C4D08352C684E689C437D
:10C44000F60200D51C432C60074D0C352C684E6855
:10C450009C43B60200D51C432C60521C102AFFF4EA
:10C460005DAFBDE8F88F0000003C01404438024059
:10C470000030014000000240000402400008024079
:10C48000000C024000100240426931EA020200D171
:10C490000904816170470AB1816170470904FBE7B3
:10C4A0000148806870470000000000200248816851
:10C4B0000278114481607047000000200B4810B5DD
:10C4C000016841F400710160016841F4806101601C
:10C4D000016841F480710160032000F061F80020E0
:10C4E00000F006F800F024F8002010BD003C0240E7
:10C4F00070B50D4D04464FF47A712878B1FBF0F019
:10C500000A490968B1FBF0F000F0BEFA48B9102CF6
:10C5100007D200222146501E00F022F800206C6055
:10C5200070BD012070BD0000000000200C00002044
:10C530000A4808B5016841F480410160006800F4D0
:10C54000804000900548001F016841F08051016063
:10C55000006800F08050009008BD000044380240A0
:10C56000F0B40E4B1B680C46C3F30223C3F107055E
:10C57000042D00D90425191D072901D2002300E04C
:10C58000DB1E012606FA05F1491E214099409E4016
:10C59000761E16403143F0BC00F04FBF0CED00E0BA
:10C5A000064900F0070208684FF6FF03184040EA0A
:10C5B0000220034A10430860704700000CED00E0C1
:10C5C0000000FA052DE9F0470E46050065D0DFF8BA
:10C5D0001481D8F80000F7B200F00F00B04207D283
:10C5E00088F80070D8F8000000F00F00B04254D175
:10C5F00028683D4C810712D5400703D5206840F4D8
:10C60000E05020602878000703D5206840F460409F
:10C6100020602068A96820F0F00008432060287896
:10C62000C0072DD0304968680839012812D0022887
:10C6300013D0032811D00968890700292DDA216851
:10C6400021F0030101432160FFF72AFF814641F2F7
:10C65000883A0EE009688903EFE709688901ECE789
:10C66000FFF71EFFA0EB0901514502D90320BDE8E9
:10C67000F0872068696800F00C00B0EB810FEFD103
:10C68000D8F80010404601F00F01B14207D90770F9
:10C69000006800F00F00B04201D00120E7E72878E1
:10C6A000400705D52068E96820F4E0500843206081
:10C6B0002878000706D52068296920F4604040EA00
:10C6C000C100206000F016F82168084AC1F3031188
:10C6D000515CC840064908600020FFF709FF0020B0
:10C6E000C5E70000003C02400838024030D5000891
:10C6F0000C000020154810B5006810F00C0214481A
:10C7000013D04110042A0FD0082A0ED10F4C241F39
:10C710002268236802F03F025B0207D52068C0F35D
:10C720008810A0FB010106E0084610BD2168C1F396
:10C730008811A1FB00010023FFF748FD2168C1F328
:10C740000141491C4900B0FBF1F010BD083802401E
:10C750000024F4002DE9F84F050076D02878DFF8A2
:10C76000F8B2BE4CC00749D0DBF800105846C1F300
:10C770008101012908D00068C0F3810002280AD194
:10C78000201D0068400206D52068800336D5686801
:10C790000028E2D032E06868B0F5803F10D0B0F5F4
:10C7A000A02F206810D020F480302060206820F472
:10C7B000802020606868A0B1FFF772FE06460CE09A
:10C7C000206840F48030F4E740F480202060F7E7F0
:10C7D000FFF766FE801B642873D820688003F7D5B6
:10C7E0000CE0FFF75DFE064605E000BFFFF758FED0
:10C7F000801B6428F0D820688003F7D42878DFF8FD
:10C80000608280074FF000093ED5DBF800105846E3
:10C8100011F00C0F09D00068C0F3810002280BD181
:10C820008D48001F0068400206D42068800715D597
:10C83000E868012809D111E0E868B8B10120C8F81A
:10C840000000FFF72DFE064605E002E1FFF728FE97
:10C85000801B0228C0D820688007F7D52068296986
:10C8600020F0F80040EAC10020600DE0C8F8009018
:10C87000FFF716FE064604E0FFF712FE801B0228B3
:10C880001FD820688007F7D42878000722D5724E79
:10C89000744869696C3671B101210160FFF700FECF
:10C8A000074604E0FFF7FCFDC01B022809D83068EA
:10C8B0008007F7D50EE0C0F80090FFF7F1FD0746BE
:10C8C00005E083E0FFF7ECFDC01B02287ED830684E
:10C8D0008007F7D42878400768D5DFF87CA10027C7
:10C8E0000AF1380ADAF80000C0000BD4DAF80010B8
:10C8F00041F08051CAF80010DAF80000012700F07A
:10C9000080500090584E3068C00510D4306840F414
:10C9100080703060FFF7C4FD009005E0FFF7C0FDB8
:10C920000099401A022851D83068C005F6D54A4E01
:10C93000A868683601280FD00528306810D020F08C
:10C9400001003060306820F004003060A868B8B1A1
:10C95000FFF7A6FD00900FE0306840F00100F4E71B
:10C9600040F004003060F7E7FFF79AFD0099411AA4
:10C9700041F28830814264D830688007F4D50EE0F7
:10C98000FFF78EFD009007E0FFF78AFD0099411A3E
:10C9900041F28830814254D830688007F4D42FB1F6
:10C9A000DAF8001021F08051CAF80010A869C0B36D
:10C9B000DBF80010C1F3810102294AD00228484661
:10C9C00007D0C8F86000FFF76BFD00E039E00546CE
:10C9D0003AE04746C8F86000FFF762FD064604E00B
:10C9E000FFF75EFD801B02282BD820688001F7D45A
:10C9F000D5E907010843A96A1C4A490802EB01412D
:10CA00006A6A41EA8211084395F82C1040EA0161F4
:10CA10001148001F016001203866FFF741FD0546FF
:10CA200005E014E0FFF73CFD401B022809D8206810
:10CA30008001F7D50BE000BFFFF732FD401B022855
:10CA400002D90320BDE8F88F20688001F4D40020CB
:10CA5000F8E70120F6E700000838024000380240FD
:10CA600000004742800E4742007000400000FFFF78
:10CA70004FF0E0210428086903D020F00400086189
:10CA8000704740F00400FAE710B5401EB0F1807F17
:10CA900001D3012010BD4FF0E02460610F21601729
:10CAA00000F0CBFC0020A06107202061002010BD19
:10CAB000704710F8391F40780843704770B5026816
:10CAC00004461068D168536910F00F0F50D003F07E
:10CAD000010501F4907635435DD0C20705D0CA0543
:10CAE00003D5E26B42F00102E263420705D5DA07A3
:10CAF00003D0E26B42F00202E263820705D5DA0757
:10CB000003D0E26B42F00402E263020705D5DA07C4
:10CB100003D0E26B42F00802E263E26B002A33D0FA
:10CB2000800604D5880602D5204600F0F7FB206871
:10CB30004069E16BC0F38010090700D428B3204698
:10CB400000F0DEFB2068416949061AD5416921F0F1
:10CB500040014161606BA0B11B490165606BFFF74B
:10CB6000ABFB002810D0606B016DBDE8704008473A
:10CB7000830610D58B060ED52046BDE8704000F028
:10CB8000CDBB2046FFF794FF70BD2046FFF790FF16
:10CB90000020E06370BD030606D50B0604D52046D1
:10CBA000BDE8704000F000BC4006F3D54806F1D562
:10CBB000D168204621F04001D160202184F839104D
:10CBC00000F054F870BD0000F1D2000890F83A303F
:10CBD000202B1DD1D1B1CAB190F83830012B17D01C
:10CBE00081628285C2850021C163222280F83A20B9
:10CBF00080F8381001684A6942F001024A61006811
:10CC0000C16841F49071C1600020704701207047F5
:10CC10000220704730B50068114988420CD1114894
:10CC200041880A0408D402464C0412784FF00003ED
:10CC300006D50A2A01D0438030BD41F400410DE001
:10CC40000D2A09D0C1F30D04074D491C89B22A559C
:10CC50004180C729EFD830BD41F48041418030BDCB
:10CC60000010014014000020180000207047FEE76B
:10CC7000044908B50A6802430A6009680140009146
:10CC800008BD000030380240F0B50A68032492FA6B
:10CC9000A2F2B2FA82F30F257EE0324601269E40D0
:10CCA000324078D0D1F804E0066892FAA2F7B7FAD9
:10CCB00087F74FEA470C04FA0CF7BE4392FAA2F743
:10CCC000B7FA87F77F000EFA07FE46EA0E060660FF
:10CCD0004E68012E01D0022E15D1D1F808E08668E9
:10CCE00092FAA2F7B7FA87F74FEA470C04FA0CF763
:10CCF000BE4392FAA2F7B7FA87F77F000EFA07FE53
:10CD000046EA0E068660D1F810C0C66892FAA2F70D
:10CD1000B7FA87F77F0004FA07FE92FAA2F7B7FA8C
:10CD200087F77F0026EA0E060CFA07FC46EA0C0697
:10CD3000C6604E68022E2ED192FAA2F6B6FA86F698
:10CD4000082E4E6913D2076A92FAA2FCBCFA8CFC38
:10CD50004FEA8C0C05FA0CFC92FAA2F2B2FA82F2BB
:10CD6000920027EA0C0796403743076213E0476AB0
:10CD7000120A92FAA2FCBCFA8CFC4FEA8C0C05FA5F
:10CD80000CFC92FAA2F2B2FA82F2920027EA0C07A5
:10CD90009640374347625B1C0A681646DA407FF4C8
:10CDA0007CAF4A68012A01D0022A07D1CB684168CA
:10CDB0003246914306FB03F2114341600020F0BD6F
:10CDC00000B587B018216846FFF738FA0420FFF74E
:10CDD0004FFF8020FFF74CFF0220FFF749FF0120A3
:10CDE000FFF746FF08484FF480218161042100913C
:10CDF00001210022CDE90112CDE903216946FFF7A7
:10CE000043FF07B000BD000000000240FEE770478E
:10CE100070B506465FF0040404F1B000C0B200F043
:10CE20001DF9002000F01AF9102000F017F9002574
:10CE3000304600F07FF96D1CEDB2802DF8D3641CF4
:10CE4000E4B2082CE8D370BD70B5174E044600223A
:10CE500040213046FFF71FFB5FF0000504F0800023
:10CE6000000601D5012200E0002280213046FFF7B4
:10CE700012FB6006040E022000F016FB0122402186
:10CE80003046FFF708FB022000F00EFB0022402195
:10CE90003046FFF700FB022000F006FB6D1CEDB2F0
:10CEA000082DDBD370BD0000000402403E4810B5E1
:10CEB000016886B041F00201016000683B4C00F05F
:10CEC00002000590C02000900120019002900320F4
:10CED000039069462046FFF713FA012240212046BD
:10CEE000FFF7D9FA012280212046FFF7D4FA642007
:10CEF00000F0CCFAAE2000F0B1F8002000F0AEF85F
:10CF0000102000F0ABF8402000F0A8F8812000F0DD
:10CF1000A5F8FF2000F0A2F8A12000F09FF8C8209B
:10CF200000F09CF8A62000F099F8A82000F096F8F0
:10CF30003F2000F093F8D32000F090F8002000F09C
:10CF40008DF8D52000F08AF8802000F087F8D920ED
:10CF500000F084F8F12000F081F8DA2000F07EF88B
:10CF6000122000F07BF8DB2000F078F8402000F081
:10CF700075F8202000F072F8022000F06FF88D2084
:10CF800000F06CF8142000F069F8A42000F066F8B6
:10CF9000A62000F063F8AF2000F060F80020FFF753
:10CFA00037FF06B010BD00003038024000040240D8
:10CFB0002DE9F0470025091D9246804601F0FF0942
:10CFC0001B4E2FE02038C7B2B8F1780F05D909F110
:10CFD00001004FF0000800F0FF094946404600F00C
:10CFE00029F8002404EB0710305C00F0A3F8641C5F
:10CFF000E4B2082CF6D309F10100C1B2404600F0BA
:10D0000019F8002404EB07103044007A00F092F87D
:10D01000641CE4B2082CF5D308F108006D1C00F084
:10D02000FF08EDB21AF805000028CBD1BDE8F08763
:10D0300068D7000810B50446B031C8B200F00EF849
:10D04000102040EA141000F009F804F00F00BDE8C9
:10D05000104040F0010000F001B8000070B5344C01
:10D060000546012280212046FFF715FA01224021C2
:10D070002046FFF710FA022000F016FA0022802165
:10D080002046FFF708FA022000F00EFA00224021A5
:10D090002046FFF700FA7820FFF7D6FE0122402154
:10D0A0002046FFF7F8F9022000F0FEF900224021A7
:10D0B0002046FFF7F0F90020FFF7C6FE01224021CD
:10D0C0002046FFF7E8F9022000F0EEF900224021A7
:10D0D0002046FFF7E0F92846FFF7B6FE012240217F
:10D0E0002046FFF7D8F9022000F0DEF900224021A7
:10D0F0002046FFF7D0F9002240212046FFF7CBF968
:10D10000002280212046FFF7C6F9022000F0CCF96A
:10D11000012240212046FFF7BEF90122802120464E
:10D12000FFF7B9F9BDE87040022000F0BDB900007A
:10D130000004024070B5344C05460122802120468F
:10D14000FFF7A9F9012240212046FFF7A4F90220A8
:10D1500000F0AAF9002280212046FFF79CF9022066
:10D1600000F0A2F9002240212046FFF794F9782030
:10D17000FFF76AFE012240212046FFF78CF90220CA
:10D1800000F092F9002240212046FFF784F9402068
:10D19000FFF75AFE012240212046FFF77CF90220CA
:10D1A00000F082F9002240212046FFF774F928465A
:10D1B000FFF74AFE012240212046FFF76CF90220CA
:10D1C00000F072F9002240212046FFF764F90022A6
:10D1D00040212046FFF75FF9002280212046FFF71B
:10D1E0005AF9022000F060F9012240212046FFF7A1
:10D1F00052F9012280212046FFF74DF9BDE8704029
:10D20000022000F051B9000000040240704770474E
:10D21000FFF74CB930B593B030216846FFF70EF8F0
:10D2200014210CA8FFF70AF819480024016841F0FE
:10D2300080510160006800F080501190154801682D
:10D2400021F4404141F4004101600068022500F4EE
:10D250004040119001200390102004900095069505
:10D260000820CDE907405420099004200A900B9033
:10D270006846FFF76FFA0F20CDE90C05E802CDE90B
:10D280000E4001210CA81094FFF79CF913B030BD9B
:10D2900040380240007000401048016841F47001BD
:10D2A00001600F48016841F0010101600C4A002152
:10D2B0000832116002680B4B1A400260031D0A4AD3
:10D2C0001A60026822F48022026005480C30016076
:10D2D00002490648803908607047000088ED00E088
:10D2E00000380240FFFFF6FE1030002400C00008A6
:10D2F00010B5806B0021C185C184FFF7D9FB10BD3B
:10D300000168CA6822F49072CA6001684A6922F012
:10D3100001024A61202180F83A10704710B590F858
:10D320003A10222901D0022010BD8168B1F5805F3A
:10D3300011D00169002901681FD0496801F07F03FD
:10D34000816A4A1C82620B70C18D491E0904090C56
:10D35000C18518D026E00269816A002A02685268F5
:10D3600005D0D2B20A80816A491C8162ECE7C2F31F
:10D3700008020A80816A891CF7E74A68816A4B1CA7
:10D3800083620A70E0E70168CA6822F49072CA609A
:10D3900001684A6922F001024A61202180F83A10AE
:10D3A000FFF738FC002010BD90F83910212901D07A
:10D3B000022070478168B1F5805F016A0BD04A1C7A
:10D3C0000262026809785160C18C491E0904090C87
:10D3D000C1840ED017E009880268C1F308015160CA
:10D3E00001690029016A02D0491C0162ECE7891C2D
:10D3F000FBE70168CA6822F08002CA600068C16861
:10D4000041F04001C16000207047000010B508489D
:10D41000FFF754FB0648FFF74CFB2028FAD1012206
:10D4200004490348FFF7D2FB0028F8D110BD0000E3
:10D43000E000002014000020FEE70907090E002884
:10D4400004DB00F1E02080F80014704700F00F00CA
:10D4500000F1E02080F8141D704702E008C8121F98
:10D4600008C1002AFAD170477047002001E001C1CD
:10D47000121F002AFBD1704710B504460420FFF7A5
:10D48000F7FA0148046010BD1000002070B5054691
:10D4900000244FF47A7603E0304600F005F8641C6F
:10D4A000AC42F9D370BD000070B54FF0E02400220B
:10D4B00065690949A36909684843A1699942FCD093
:10D4C00002D2A3EB010302E0A5EB010633441A44A8
:10D4D0000B468242F1D370BD100000205420FFF7AC
:10D4E000CBFFFFF7E3FCFEF7E9FFFFF793FEFFF743
:10D4F00067FC0A4C0020FFF78BFCC820FEF7EEFE0D
:10D5000004212046FEF7C0FF05A201210020FFF7FD
:10D510004FFDC820FEF7E2FEECE7000000000240ED
:10D5200048656C6C6F2C776F726C64210000000092
:10D5300000000000000000000102030406070809C3
:10D540000000000000000000002F000000000700A5
:10D55000070000147F147F1400242A7F2A1200621F
:10D5600064081323003649552250000005030000CB
:10D5700000001C224100000041221C000014083E53
:10D5800008140008083E0808000000A06000000819
:10D59000080808080000606000000020100804026D
:10D5A000003E5149453E0000427F4000004261512B
:10D5B0004946002141454B31001814127F100027C5
:10D5C00045454539003C4A49493000017109050388
:10D5D00000364949493600064949291E00003636B9
:10D5E000000000005636000000081422410000141C
:10D5F00014141414000041221408000201510906F9
:10D6000000324959513E007C1211127C007F494979
:10D610004936003E41414122007F4141221C007FAA
:10D6200049494941007F09090901003E4149497AB8
:10D63000007F0808087F0000417F41000020404132
:10D640003F01007F08142241007F40404040007F9E
:10D65000020C027F007F0408107F003E4141413EE2
:10D66000007F09090906003E4151215E007F09192A
:10D6700029460046494949310001017F0101003F27
:10D680004040403F001F2040201F003F4038403FA7
:10D69000006314081463000708700807006151490B
:10D6A000454300007F41410000552A552A5500009E
:10D6B00041417F000004020102040040404040401C
:10D6C000000001020400002054545478007F4844B4
:10D6D000443800384444442000384444487F0038EB
:10D6E0005454541800087E0901020018A4A4A47C14
:10D6F000007F080404780000447D400000408084DE
:10D700007D00007F102844000000417F4000007C25
:10D7100004180478007C0804047800384444443831
:10D7200000FC242424180018242418FC007C08047D
:10D73000040800485454542000043F444020003C56
:10D740004040207C001C2040201C003C4030403CDD
:10D75000004428102844001CA0A0A07C004464546D
:10D760004C441414141414140000000000000000B1
:10D770000000000000000000000000F800000000B1
:10D78000000000333000000000100C06100C0600F2
:10D79000000000000000000040C07840C078400059
:10D7A000043F04043F040400007088FC08300000BB
:10D7B000001820FF211E0000F008F000E018000013
:10D7C00000211C031E211E0000F0088870000000CC
:10D7D0001E2123241927211010160E00000000001E
:10D7E0000000000000000000000000E0180402003B
:10D7F000000000071820400000020418E0000000AC
:10D800000040201807000000404080F080404000A9
:10D810000202010F01020200000000F000000000FF
:10D820000101011F010101000000000000000000D3
:10D8300080B0700000000000000000000000000048
:10D8400000010101010101010000000000000000D1
:10D85000003030000000000000000000806018046C
:10D86000006018060100000000E010080810E00049
:10D87000000F102020100F00001010F80000000012
:10D880000020203F20200000007008080888700059
:10D8900000302824222130000030088888483000D9
:10D8A0000018202020110E000000C02010F80000F9
:10D8B00000070424243F240000F808888808080092
:10D8C0000019212020110E0000E0108888180000A7
:10D8D000000F112020110E0000380808C838080079
:10D8E0000000003F000000000070880808887000F9
:10D8F000001C222121221C0000E010080810E0007A
:10D900000000312222110F00000000C0C000000002
:10D910000000003030000000000000800000000027
:10D92000000080600000000000008040201008001F
:10D9300000010204081020004040404040404000E8
:10D9400004040404040404000008102040800000C3
:10D950000020100804020100007048080808F000C8
:10D960000000003036010000C030C828E810E00098
:10D970000718272423140B000000C038E000000023
:10D98000203C23020227382008F88888887000008D
:10D99000203F202020110E00C03008080808380061
:10D9A000071820202010080008F808080810E000D8
:10D9B000203F202020100F0008F88888E808100079
:10D9C000203F20202320180008F88888E80810004D
:10D9D000203F200003000000C03008080838000085
:10D9E00007182020221E020008F808000008F80886
:10D9F000203F210101213F20000808F8080800000D
:10DA00000020203F2020000000000808F80808003F
:10DA1000C08080807F00000008F888C028180800B7
:10DA2000203F20012638200008F8080000000000F0
:10DA3000203F20202020300008F8F800F8F80800E7
:10DA4000203F003F003F200008F830C00008F808E1
:10DA5000203F200007183F00E01008080810E000F1
:10DA60000F10202020100F0008F808080808F00008
:10DA7000203F210101010000E01008080810E0002B
:10DA80000F18242438504F0008F8888888887000C0
:10DA9000203F2000030C3020007088080808380060
:10DAA0000038202121221C00180808F80808180056
:10DAB0000000203F2000000008F808000008F808D7
:10DAC000001F202020201F000878880000C8380888
:10DAD000000007380E010000F80800F80008F80000
:10DAE000033C0700073C030008186880806818089A
:10DAF00020302C03032C30200838C800C838080018
:10DB00000000203F2000000010080808C838080066
:10DB10002038262120201800000000FE020202000A
:10DB20000000007F40404000000C30C000000000BA
:10DB3000000000010638C00000020202FE000000E2
:10DB4000004040407F000000000004020202040088
:10DB500000000000000000000000000000000000C5
:10DB600080808080808080800002020400000000AD
:10DB700000000000000000000000808080800000A5
:10DB80000019242222223F2008F800808000000093
:10DB9000003F112020110E00000000808080000056
:10DBA000000E112020201100000000808088F80065
:10DBB000000E112020103F20000080808080000097
:10DBC000001F222222221300008080F088888818FB
:10DBD0000020203F20200000000080808080800006
:10DBE000006B94949493600008F80080808000009B
:10DBF000203F210000203F20008098980000000076
:10DC00000020203F202000000000008098980000A5
:10DC100000C08080807F000008F8000080808000C5
:10DC2000203F24022D302000000808F800000000EA
:10DC30000020203F202000008080808080808000A5
:10DC4000203F20003F20003F808000808080000037
:10DC5000203F210000203F200000808080800000C5
:10DC6000001F202020201F008080008080000000F6
:10DC700080FFA12020110E00000000808080800025
:10DC8000000E112020A0FF80808080008080800016
:10DC900020203F2120000100000080808080800043
:10DCA0000033242424241900008080E080800000B8
:10DCB0000000001F20200000808000000080800005
:10DCC000001F202020103F20808080000080808066
:10DCD00000010E30080601008080008000808080F6
:10DCE0000F300C030C300F0000808000808080001B
:10DCF0000020312E0E312000808080000080808046
:10DD000080818E70180601000080808080808000F5
:10DD10000021302C2221300000000000807C020213
:10DD200000000000003F404000000000FF00000035
:10DD300000000000FF0000000002027C80000000E4
:10DD40000040403F00000000000601010202040400
:10DD5000000000000000000078DD00080000002046
:10DD6000180000005AD4000890DD000818000020B8
:10DD7000080500006AD4000801000000100000003F
:10DD8000000000000024F40000000000000000007B
:040000050800C19599
:00000001FF
