:020000040800F2
:10000000C02F0020A9010008B7250008DB21000847
:10001000B5250008AB070008D9490008000000001A
:10002000000000000000000000000000B12C0008EB
:100030007908000800000000AF2C0008452E0008D9
:10004000C3010008C3010008C3010008C301000880
:10005000C3010008C3010008C3010008C301000870
:10006000C3010008C3010008C3010008C301000860
:10007000C3010008C3010008C3010008C301000850
:10008000C3010008C3010008C3010008000000000C
:10009000000000000000000000000000C301000894
:1000A000C3010008C3010008C3010008C301000820
:1000B000C3010008C3010008C3010008C301000810
:1000C000C3010008C3010008C3010008C301000800
:1000D000C301000815330008C30100080000000038
:1000E000C3010008C3010008C301000800000000AC
:1000F000000000000000000000000000F107000800
:1001000000000000C3010008C3010008C30100088B
:1001100000000000000000000000000000000000DF
:10012000C3010008C3010008C3010008C30100089F
:10013000C3010008000000000000000000000000F3
:10014000000000000000000000000000252B000857
:10015000C3010008C3010008C3010008C30100086F
:10016000C3010008C30100080000000000000000F7
:10017000000000000000000000000000000000007F
:1001800000000000C30100080000000000000000A3
:10019000C3010008DFF80CD000F0CAFA004800479D
:1001A000B9530008C02F0020064880470648004782
:1001B000FEE7FEE7FEE7FEE7FEE7FEE7FEE7FEE717
:1001C000FEE7FEE7CD2E0008950100082DE9F05F5F
:1001D0000546002092469B468846064681464024B6
:1001E0001BE0284641464746224600F0F1F95346B7
:1001F0005A46C01A914110D311461846224600F0C3
:10020000D8F92D1A67EB01084F462246012000213C
:1002100000F0CFF917EB00094E41201EA4F10104B4
:10022000DFDC484631462A464346BDE8F09F40EAB7
:1002300001039B0703D009E008C9121F08C0042A64
:10024000FAD203E011F8013B00F8013B521EF9D24B
:100250007047D2B201E000F8012B491EFBD2704773
:100260000022F6E710B513460A4604461946FFF782
:10027000F0FF204610BD2DE9FE4F804681EA0300C5
:10028000C00F0C46009021F0004123F00045B8EB70
:100290000200A94105D24046214690461C460B4625
:1002A000024623F00040104347D0270DC7F30A0051
:1002B000C3F30A510290401A019040286BDAC3F34D
:1002C000130040F4801B0098924620B10023D2EB2B
:1002D000030A63EB0B0B01985946C0F140025046EC
:1002E00000F067F906460D4650465946019A00F05F
:1002F0007FF910EB08006141002487EA115284EA7B
:10030000E7731A4340D0009A62B3019A012A4FEA78
:10031000075215DC001B61EB02014FF0004202EABC
:100320000752CDE90042001C41F5801132462B46B0
:1003300000F07FF903B0BDE8F08F40462146F9E7B1
:10034000001B61EB0201001C41F5801300185B41AA
:100350002018A2F5001747EB030140EAD570B61943
:100360006D4111E06D084FEA360645EAC0754FEA67
:100370000752001B61EB0201001C41F58011490886
:100380004FEA30000019514132462B4603B0BDE818
:10039000F04F00F03FB90098012240000023D0EB5D
:1003A000020263EBE073009821464FEAE074B8EB79
:1003B000000061EB0401E9E783F000435BE781F0B3
:1003C000004158E72DE9FE4F81EA030404F00044A0
:1003D00021F0004100944FF0000B23F0004350EA5D
:1003E00001045ED052EA03045BD0C3F30A54C1F3A4
:1003F0000A552C44A4F2F3340194A0FB0254C1F337
:10040000130141F48011C3F3130343F4801301FB80
:10041000024400FB034E840A970A44EA815447EAE7
:100420008357A4FB076802958D0A05FB07854FEAF1
:10043000932C04FB0C542705029D4FEA065847EA0B
:100440001637B5EB08056EEB070C870E920E47EAE0
:10045000811742EA8312A7FB0201B6EB0B0164EBA2
:1004600000042B0D43EA0C335E1844EB1C50DA46B3
:100470005146E7FB0201C5F313044FEA0B3343EA8D
:1004800014534FEA0432019C43EA0603A4F10C041E
:100490000294009CCDE900B400F0CBF803B0BDE8B5
:1004A000F08F00200146F9E72DE9F04D81EA0304C1
:1004B00004F0004B21F0004514464FF0000A23F0F1
:1004C000004150EA050220D054EA01021DD0C5F3D4
:1004D0000A570246C5F31303C1F31300C1F30A56CA
:1004E00040F4801543F48013A7EB0608101BD64692
:1004F00008F2FD3873EB050002D308F1010801E0B2
:1005000092185B41B8F1000F03DA00200146BDE804
:10051000F08D00204FF48011064684460EE0171B34
:1005200073EB050705D3121B63EB050306434CEA87
:10053000010C49084FEA300092185B4150EA01076C
:10054000EDD152EA030012D082EA040083EA0501E9
:10055000084305D0101BAB4106D20122002306E060
:1005600000224FF0004302E06FF0010253101AEB3B
:1005700006004CEB085110EB0A0041EB0B01BDE803
:10058000F04D00F047B830B50B4601460020202260
:10059000012409E021FA02F59D4205D303FA02F590
:1005A000491B04FA02F52844151EA2F10102F1DCF0
:1005B00030BD202A04DB203A00FA02F10020704707
:1005C0009140C2F1200320FA03F319439040704791
:1005D000202A04DB203A21FA02F00021704721FA98
:1005E00002F3D040C2F120029140084319467047FF
:1005F000202A06DBCB17203A41FA02F043EAE073E7
:1006000006E041FA02F3D040C2F1200291400843D3
:100610001946704710B5141E73F1000408DA401C27
:1006200041F1000192185B411A4301D120F0010011
:1006300010BD2DE9F04D92469B4611B1B1FA81F201
:1006400002E0B0FA80F220329046FFF7B2FF044693
:100650000F4640EA0A0041EA0B0153465A46084356
:1006600013D0114653EA010019D0C8F14002504698
:10067000FFF7AEFF05460E46504659464246FFF785
:1006800098FF084305D0012004E020463946BDE824
:10069000F08D0020054346EAE0762C4337430A9864
:1006A0006305E40AA0EB08000022FD0A44EA47546F
:1006B0000A3002D500200146E9E701051019694119
:1006C000DDE9084500196941BDE8F04DA2E7C1F335
:1006D0000A52C1F3130140F2FF3341F480119A42F0
:1006E00002DA00200146704740F233439A42A2F2F8
:1006F000334202DC5242FFF76BBFFFF75ABF0000E4
:1007000030B5041E71F1000404DB4FF00044404298
:1007100064EB0101141E73F1000405DB1C464FF06D
:100720000043524263EB0403994208BF904230BD3C
:10073000064C074D06E0E06840F0010394E807002E
:1007400098471034AC42F6D3FFF728FDA85D0008A7
:10075000C85D000870B58C1810F8015B15F0070330
:1007600001D110F8013B2A1106D110F8012B03E04A
:1007700010F8016B01F8016B5B1EF9D12B0705D452
:100780000023521E0DD401F8013BFAE710F8013B9B
:10079000CB1A921C03E013F8015B01F8015B521EB7
:1007A000F9D5A142D8D3002070BDFEE700207047E4
:1007B0000020704710B500220449054802F0B4FE3D
:1007C0000449034802F0AAFE002010BDD8130020FF
:1007D0004C070020F00F002010B50146034802F03E
:1007E0009DFE024802F07EFE002010BD4C07002056
:1007F000014800F055B80000EC06002001681823FD
:10080000CAB2103AB2FBF3F2054B6FF30901032AA7
:100810009B5CC36500D9091D8165084670470000CF
:10082000885D000810B5014600208B698A6A4FF088
:10083000C07453B1B3F5005F15D072B1012A0CD06A
:10084000022A0AD0032A09D104E01AB1012A06D0EB
:10085000022A03D1C96AC90100D5012010BDC96AA5
:10086000A142FAD010BD002AF7D0012AF2D0022A04
:10087000F3D0032AF3D010BD7047704790F83510BD
:10088000022903D08021416501207047052180F8AD
:1008900035100068016821F00101016000207047F7
:1008A0002DE9F84304464FF00009CDF80090634865
:1008B0004FF41651A56D0068B0FBF1F72E6894F85F
:1008C0005C10082000FA01F131420FD021680A685B
:1008D00052070BD50A6822F004020A6094F85C10F3
:1008E0008840A860606D40F00100606594F85C107D
:1008F0004FF0010808FA01F0304208D02168496938
:10090000090604D5A860606D40F00200606594F8A7
:100910005C1004208840304208D0216809688907AB
:1009200004D5A860606D40F00400606594F85C1028
:1009300010208840304218D021680968090714D572
:10094000A86020680168490304D50068000308D541
:10095000A16C07E00168C90503D4016821F0080112
:100960000160216C09B12046884794F85C10202072
:100970008840304231D021680968C9062DD5A86069
:1009800094F8350005282068016806D0490347D54A
:10099000006800031DD4616C1CE021F016010160A9
:1009A0002068416921F080014161206C08B9A06C88
:1009B00020B12068016821F00801016094F85C1002
:1009C0003F208840A86084F8349084F83580216DF9
:1009D0001FE0E16B09B120468847606D00282BD0ED
:1009E000606DC00714D0052084F8350020680168C8
:1009F00021F0010101600098401C0090B84203D82A
:100A000020680068C007F6D184F8349084F83580F7
:100A1000E16C002910D001B02046BDE8F043084742
:100A20000168C905D5D4016821F01001016084F87E
:100A3000349084F83580CCE7BDE8F883840000204A
:100A40002DE9F041044600F047F906465CB1002567
:100A500084F83450022084F835002068016821F0C1
:100A6000010101600DE00120BDE8F08100F034F9E2
:100A7000801B052805D920206065032084F83500F7
:100A8000F2E720680068C007F0D1226811682048AA
:100A90000140D4E901031843D4E903363343184332
:100AA00063691843A3691843E3691843236A184329
:100AB0000843616A042903D1D4E90B13194308439D
:100AC000106020684069666A20F0070130460E43D6
:100AD000012704280CD1A06A0643E06A40B12046F1
:100AE000FFF7A0FE20B14020606584F83570BAE7BA
:100AF000206846612046FFF781FE94F85C203F2184
:100B000091408160656584F835700020ACE7000095
:100B10003F8010F070B5044600F0DEF80546601C1A
:100B200002D004480078044400F0D6F8401BA042EC
:100B3000FAD370BD780000202DE9F84F00224FF065
:100B4000010803254FF00F0E0B6808FA02F423404A
:100B5000A34271D14E68012E05D0022E03D0112E72
:100B600001D0122E15D18668570005FA07FC26EA37
:100B70000C06D1F80CC00CFA07FC4CEA060CC0F8C5
:100B800008C04668A6430C79C4F30014944034436B
:100B90004460C668570005FA07FC8C6826EA0C0614
:100BA000BC403443C4604C68022C01D0122C13D1D9
:100BB000D40800EB8404A346D4F8209054074FEAED
:100BC000D46A0EFA0AF629EA06090E6906FA0AF646
:100BD00046EA0906CBF8206004680E7924EA0C0482
:100BE00006F00306BE40264306604C68E40056D576
:100BF0002E4C266846F480462660246822F00306C0
:100C000004F4804400942A4C3444A446D4F80848A0
:100C10009607370F0EFA07F6B443264EB04201D1BD
:100C2000002615E0244EB04201D1012610E0234EEB
:100C3000B04202D102260BE031E0214EB04201D198
:100C4000032605E01F4EB04201D1042600E007262E
:100C5000BE402643CCF808681B4E34684F689C435E
:100C6000FF0300D51C433460174E361D34684F68AF
:100C70009C43BF0300D51C433460134E08363468D0
:100C80004F689C43FF0200D51C4334600E4E0C3667
:100C900034684F689C43BF0200D51C433460521C2B
:100CA000102AFFF451AFBDE8F88F0000443802402D
:100CB00000300140000002400004024000080240F1
:100CC000000C024000100240003C01400AB181616A
:100CD00070470904FBE70000014880687047000086
:100CE00078000020024881680278114481607047D2
:100CF000780000200B4810B5016841F400710160D4
:100D0000016841F480610160016841F48071016013
:100D1000032000F06FF8002000F006F800F024F83F
:100D2000002010BD003C024070B50D4D04464FF44C
:100D30007A712878B1FBF0F00A490968B1FBF0F04C
:100D400000F0C0FF48B9102C07D200222146501EE7
:100D500000F030F800206C6070BD012070BD000014
:100D600078000020840000200A4808B5016841F49A
:100D700080410160006800F4804000900548001F39
:100D8000016841F080510160006800F080500090DF
:100D900008BD000044380240002809DB00F01F02B3
:100DA000012191404009800000F1E020C0F80011CD
:100DB00070470000F0B40E4B1B680C46C3F30223CF
:100DC000C3F10705042D00D90425191D072901D2F7
:100DD000002300E0DB1E012606FA05F1491E214032
:100DE00099409E40761E16403143F0BC03F006BE8B
:100DF0000CED00E0064900F0070208684FF6FF031B
:100E0000184040EA0220034A10430860704700007F
:100E10000CED00E00000FA05704700684162002018
:100E20007047F0B50368586A39B19C6A4FF482760E
:100E300000EB144400204D1E0AE040EA0240986294
:100E40000FE006EB8007DF59401C04EB1744C0B2EB
:100E5000A842F6D344EA02404FF4807202EB8101CB
:100E600058500020F0BDD0F8040402F0F2BDC1EBF0
:100E7000C10200EB8202D0F80404926C02F045BD7E
:100E8000C1EBC10200EB8202D0F80404D2F80822C0
:100E900002F09EBDD0F8040402F0DDBD70B504463A
:100EA0000B0601F00F00C0EBC00104EB81014FF015
:100EB00001024FF0000503D581F83D203C3103E0ED
:100EC00081F8FD5101F5FE71087094F8BC0301280A
:100ED00008D084F8BC23206803F034F984F8BC53AC
:100EE000002070BD022070BD70B5044601F00F00F7
:100EF0006268904201D9012070BD0B0601F00F011C
:100F0000C1EBC10104EB81014FF001024FF000057C
:100F100003D581F83D203C3103E081F8FD5101F516
:100F2000FE718D70087094F8BC03012808D084F815
:100F3000BC23206803F0E2FA84F8BC53002070BDA3
:100F4000022070BD01F00F01C1EBC10100EB810077
:100F5000D0F8140270472DE9F04104460F0601F065
:100F60000F00C0EBC00104EB81014FF001064FF010
:100F7000000503D581F83D603C3103E081F8FD5167
:100F800001F5FE7108708A60CB704A7802B1C880A2
:100F9000022B00D10D7194F8BC03012809D084F80C
:100FA000BC63206803F01EF8284684F8BC53BDE8F3
:100FB000F0810220FBE770B50C4601F00F05C5EB90
:100FC000C50100EB8101C1F81032C1F808220023ED
:100FD000C1F8143281F8FD3181F8FC51036901F543
:100FE000FE71012B00D10A612207027C006803D048
:100FF00003F0DCFA002070BD03F0C8F9FAE770B521
:1010000004460D4601F00F006168884201D90120B5
:1010100070BD29064FF000064FF0010207D5C0EB66
:10102000C00104EB810181F83D203C3107E0C5EBB4
:10103000C50104EB810181F8FD6101F5FE718A7043
:10104000087094F8BC03012807D084F8BC232068FA
:1010500003F080FA280702D007E0022070BD217C4F
:1010600004F57172206803F01DFA84F8BC63002057
:1010700070BD70B50C4601F00F05C5EBC50100EB66
:1010800081010B658A6400234B65012381F83D30A3
:1010900001F83C5F0369012B00D10A612207027C41
:1010A000006803D003F082FA002070BD03F06EF9EF
:1010B000FAE700002DE9FC5F05680446284603F0C6
:1010C0009EFB00287ED1206803F0C5FB002879D064
:1010D000206803F0C0FB800704D52068416901F057
:1010E00002014161206803F0B6FB010304F5717051
:1010F0004FF0010A4FF0080B009075D500262068CC
:1011000003F088FB0746DFF808946BE0F80767D028
:10111000F1B2206803F097FB8046C00707D005EBCB
:101120004611C1F808AB3146204601F001FD5FEAE7
:10113000087032D52068016C00EB46100191D0F8A0
:10114000081B2269012A019A0FD0F24B9A4214D14E
:10115000090403D54FF40041C0F8081B204600F0F5
:10116000C6FA206901280FD013E04A4505D90904C1
:1011700003D54FF40041C0F8081B204600F0B7FA31
:1011800001984845EDD804E020680121009A03F059
:1011900089F905EB4611C1F808BB5FEAC86004D5C0
:1011A00005EB46111020C1F8080B5FEA88600ED5E8
:1011B0002069012804D120680121009A03F072F906
:1011C000202100E0A1E105EB4610C0F8081B5FEA12
:1011D000884005D505EB46104FF40051C0F8081BB8
:1011E0007F08761C002F91D1206803F034FB400368
:1011F0004FF000095FD5206803F005FB0746002685
:1012000057E0F80753D0F1B2206803F00AFB80469C
:10121000C00726D006F00F020AFA02F0D5F83428EB
:101220008243C5F8342805EB4610C0F808A92069A8
:10123000012807D1C6EBC60004EB8000D0E91121DC
:1012400011448164F1B22046FFF711FE20690128A4
:1012500007D136B9206D20B920680121009A03F02A
:1012600021F95FEA087003D505EB4611C1F808B90A
:101270005FEAC86004D505EB46111020C1F80809E3
:101280005FEA486004D505EB46104021C0F8081914
:101290005FEA887004D505EB46100221C0F80819F2
:1012A0005FEA086003D53146204601F0AFFC7F08B5
:1012B000761C002FA5D1206803F0CDFA002811DAA2
:1012C000D5F8040820F00100C5F8040894F8F403E8
:1012D00001282BD0204600F0EEF92068416901F08A
:1012E00000414161206803F0B6FA00050BD5D5F83E
:1012F0000808C00702D0204600F022FA20684169A1
:1013000001F400614161206803F0A5FAC00461D5D1
:10131000D5F8040820F00101C5F804181021206850
:1013200003F04EFA00214FF67F321AE084F8F4936E
:1013300000212046FFF770FDCFE700BF05EB41100D
:10134000C0F80829D0F8003923F40013C0F8003998
:10135000C0F8082BD0F8003B23F40013C0F8003B82
:10136000491C60688842E9D8D5F81C0840F0011192
:10137000C5F81C18206B002828460DD0D0F884082A
:1013800040F00B00C5F88408D5F8440840F00B0184
:101390002846C5F844180DE0D0F8140842F22B0195
:1013A0000843C5F81408D5F8100840F00B0128468A
:1013B000C5F81018D0F8000820F4FE61C5F8001830
:1013C000217C2068009A03F06DF82068416901F4DF
:1013D00080514161206803F03EFA800415D52068F1
:1013E00002F040FE206803F0FDF9E06000F05AFAD8
:1013F0000146227B206803F069FA204600F048F994
:101400002068416901F400514161206803F023FA2A
:10141000C00634D52068816921F0100181612F6AEE
:1014200007F00F00C0EBC00004EB8006C7F3434099
:1014300006F5FE76022802D0062811D01AE047F6FB
:10144000F070074216D0C7F30A1217462846F16813
:1014500003F005FAF0683844F060B069384408E0F9
:1014600008222846009903F0FAF9B069C7F30A1177
:101470000844B0612168886940F0100088612068E4
:1014800003F0E9F9000707D5204600F018F92168B4
:10149000486900F008004861206803F0DCF9C002E8
:1014A00008D50021204600F037F82168486900F48B
:1014B00080104861206803F0CEF9800208D5002131
:1014C000204600F02DF82168486900F400104861BA
:1014D000206803F0C0F9400007D52046FFF7C3FCA1
:1014E0002068416901F080414161206803F0B3F94F
:1014F00040070AD520684568680702D52046FFF7EF
:10150000C9FC2068416829434160BDE8FC9F000098
:101510000A30544F0A31544FD0F8040402F0EABAAA
:10152000D0F8040402F0E8BA2DE9F0418AB00400D2
:1015300005D094F8BD032668002520B108E00120FD
:101540000AB0BDE8F08184F8BC53204600F05EF894
:10155000032084F8BD03F06BC00500D4256120682A
:1015600002F00EFF04F11001282288466846FEF7BB
:101570005EFE94E80F0002F08FFD0226C8BB00213A
:10158000206803F07AF9002001270EE0C0EBC001CB
:1015900004EB810181F83D7001F83C0FC880CD70EB
:1015A0008D60CD60401CC0B24D6161688142EDD854
:1015B000002011E0C0EBC00104EB810181F8FD5176
:1015C00081F8FC0181F8FF51C1F80452C1F80852BA
:1015D000401CC0B2C1F8105261688142EAD828228A
:1015E00041466846FEF723FE94E80F0002F002FE33
:1015F00010B184F8BD63A2E784F8385084F8BD7355
:10160000206802F0EBFD00209AE7000010B586B0DC
:10161000044614216846FEF723FE2068B0F1A04F6F
:101620002FD119480021026842F0010202600068CF
:1016300000F0010005904FF4C05000900220CDE969
:101640000101032003900A20049069460F48FFF728
:1016500073FA0D48001D016841F0800101600A48DD
:101660001430016841F4804101600068002200F4F8
:101670008040059011464320FFF79CFB4320FFF775
:101680008BFB06B010BD0000303802400000024065
:1016900070B50446C0680125022801D0FFF7EDF8B7
:1016A0002946D4F8040402F078FAD4F80404BDE81A
:1016B000704002F038BAD0F8040402F05CBAD0F8F6
:1016C000040402F05EBA10B5044690F8BC03012889
:1016D0000BD0012084F8BC0384F83810206803F094
:1016E000E3F8002084F8BC0310BD022010BDD0F840
:1016F000042400F57171104602F05BBA10B504467F
:10170000006894F8BC13012906D0012184F8BC13A9
:10171000A16A012902D008E0022010BDA1690129B7
:1017200003D0816B41F480318163206802F04AFD6F
:10173000206803F02FF8002084F8BC0310BD0000DF
:1017400010B50446D0F8040402F072FA2068D0F80C
:10175000001E41F00101C0F8001E206A002804D0DC
:101760000248016841F00601016010BD10ED00E083
:101770002DE9F0470E46050065D0DFF81481D8F852
:101780000000F7B200F00F00B04207D288F80070F6
:10179000D8F8000000F00F00B04254D128683D4C4A
:1017A000810712D5400703D5206840F4E05020603F
:1017B0002878000703D5206840F460402060206846
:1017C000A96820F0F000084320602878C0072DD0D9
:1017D000304968680839012812D0022813D003283C
:1017E00011D00968890700292DDA216821F0030149
:1017F00001432160FFF770FA814641F2883A0EE01A
:1018000009688903EFE709688901ECE7FFF764FAE3
:10181000A0EB0901514502D90320BDE8F0872068FB
:10182000696800F00C00B0EB810FEFD1D8F8001020
:10183000404601F00F01B14207D90770006800F07F
:101840000F00B04201D00120E7E72878400705D516
:101850002068E96820F4E0500843206028780007F9
:1018600006D52068296920F4604040EAC100206064
:1018700000F03EF82168084AC1F30311515CC840EA
:101880000649086006480068FFF74EFA0020C4E7E2
:10189000003C024008380240905D000884000020AF
:1018A0007C00002001480068704700008400002090
:1018B0000448054900680968044AC1F38221515C63
:1018C000C84070478400002008380240A05D00082E
:1018D0000448054900680968044AC1F34231515C73
:1018E000C84070478400002008380240A05D00080E
:1018F000154810B5006810F00C02144813D04110C0
:10190000042A0FD0082A0ED10F4C241F2268236806
:1019100002F03F025B0207D52068C0F38810A0FBED
:10192000010106E0084610BD2168C1F38811A1FB42
:1019300000010023FEF74AFC2168C1F30141491C64
:101940004900B0FBF1F010BD083802400024F4005B
:101950002DE9F84F040076D02078DFF838A3CE4D7B
:10196000C00749D0DAF800105046C1F381010129BF
:1019700008D00068C0F3810002280AD1281D006841
:10198000400206D52868800336D560680028E2D07A
:1019900032E06068B0F5803F10D0B0F5A02F286825
:1019A00010D020F480302860286820F4802028603F
:1019B0006068A0B1FFF790F906460CE0286840F493
:1019C0008030F4E740F480202860F7E7FFF784F9DF
:1019D000801B642873D828688003F7D50CE0FFF7D4
:1019E0007BF9064605E000BFFFF776F9801B642807
:1019F000F0D828688003F7D42078DFF8A082800729
:101A00004FF000093ED5DAF80010504611F00C0FE7
:101A100009D00068C0F3810002280BD19D48001F47
:101A20000068400206D42868800715D5E0680128C0
:101A300009D111E0E068B8B10120C8F80000FFF753
:101A40004BF9064605E020E1FFF746F9801B022826
:101A5000C0D828688007F7D52868216920F0F800E9
:101A600040EAC10028600DE0C8F80090FFF734F9A3
:101A7000064604E0FFF730F9801B02281FD82868CB
:101A80008007F7D42078000722D5824E8448616908
:101A90006C3671B101210160FFF71EF9074604E0C1
:101AA000FFF71AF9C01B022809D830688007F7D55C
:101AB0000EE0C0F80090FFF70FF9074605E082E05E
:101AC000FFF70AF9C01B02287DD830688007F7D4D9
:101AD0002078400768D5DFF8BCB100270BF1380B40
:101AE000DBF80000C0000BD4DBF8001041F080519F
:101AF000CBF80010DBF80000012700F080500090C8
:101B0000684E3068C00510D4306840F48070306092
:101B1000FFF7E2F8009005E0FFF7DEF80099401AC1
:101B2000022850D83068C005F6D55A4EA0686836ED
:101B300001280FD00528306810D020F00100306057
:101B4000306820F004003060A068B8B1FFF7C4F836
:101B500000900FE0306840F00100F4E740F004002E
:101B60003060F7E7FFF7B8F80099411A41F2883082
:101B7000814266D830688007F4D50EE0FFF7ACF8F4
:101B8000009007E0FFF7A8F80099411A41F2883069
:101B9000814256D830688007F4D42FB1DBF80010AA
:101BA00021F08051CBF80010A069D0B3DAF8002002
:101BB0005146C2F38102022A4AD00228484607D081
:101BC000C8F8600000E03CE0FFF786F804463BE020
:101BD0004746C8F86000FFF77FF8064605E000BFFB
:101BE000FFF77AF8801B02282BD828688001F7D4E9
:101BF000D4E907010843A16A2B4A490802EB0141D5
:101C0000626A41EA8211084394F82C1040EA0161AB
:101C10002048001F016001203866FFF75DF8044688
:101C200005E034E0FFF758F8001B022809D82868BF
:101C30008001F7D52BE000BFFFF74EF8001B02280C
:101C400002D90320BDE8F88F28688001F4D41EE093
:101C50000128F7D00868E26900F48001914214D1AC
:101C6000226A00F03F0191420FD147F6C071626ACB
:101C70000140914209D1A26A00F44031914204D15D
:101C8000E16A00F07060884201D00120DAE70020AC
:101C9000D8E7000008380240003802400000474200
:101CA000800E4742007000400000FFFF4FF0E0212F
:101CB0000428086903D020F004000861704740F050
:101CC0000400FAE710B5401EB0F1807F01D3012077
:101CD00010BD4FF0E02460610F21601702F08EFE0E
:101CE0000020A06107202061002010BD70B590F891
:101CF0003C20012A2CD0012480F83C40022280F8AC
:101D00003D2003685A689D6822F070060A683243D5
:101D10005A60104B02689A420ED0B2F1804F0BD03D
:101D20000D4B9A4208D00D4B9A4205D00C4B9A426B
:101D300002D00C4B9A4204D1496825F08003194324
:101D4000916080F83D40002180F83C10084670BD4D
:101D5000022070BD00000140000400400008004067
:101D6000000C00400040014010B586B0044614212C
:101D70006846FEF775FA0E492068884215D10D486D
:101D8000016841F0020101600068012100F00200D9
:101D900005904FF4807000900220CDE9010103907E
:101DA000049069460448FEF7C7FE06B010BD000067
:101DB00000080040303802400004024070B504467C
:101DC00090F83C000D4601280DD0012684F83C60B7
:101DD000022084F83D0042B1042A18D0082A2AD0F3
:101DE0000C2A4DD139E0022070BD206801F0C8F8FE
:101DF0002068816941F0080181612068816921F0D2
:101E000004018161206881692A69114311E0206819
:101E100001F0DEF82068816941F400618161206889
:101E2000816921F480618161206881692A6941EAC0
:101E30000221816124E0206801F0F6F82068C16980
:101E400041F00801C1612068C16921F00401C1614C
:101E50002068C1692A69114311E0206801F010F976
:101E60002068C16941F40061C1612068C16921F441
:101E70008061C1612068C1692A6941EA0221C161AA
:101E800084F83D60002084F83C0070BD10B504006B
:101E900003D094F83D0010B107E0012010BD0020F0
:101EA00084F83C00204600F00DF8022084F83D0044
:101EB000211D206801F018F8012084F83D00002061
:101EC00010BD000038B5054600681449884224D189
:101ED000134900200A6842F004020A600968124CA3
:101EE00001F0040100910F4921604FF080616160B1
:101EF0004021C4E9021009012161490061618900A2
:101F0000C4E90610C900C4E908102046FEF798FD90
:101F100008B1FEF7B2FCEC62A56338BD00080040D2
:101F200040380240B8600240EC060020704710F8CC
:101F3000391F40780843704770B50268044610683E
:101F4000D168536910F00F0F52D003F0010501F46E
:101F500090762E435FD0C20705D0CA0503D5E26B49
:101F600042F00102E263420705D5DA0703D0E26BD3
:101F700042F00202E263820705D5DA0703D0E26B82
:101F800042F00402E263020707D501F020022A436F
:101F900003D0E26B42F00802E263E26B002A33D026
:101FA000800604D5880602D5204601F0A1F82068F5
:101FB0004069E16BC0F38010090700D428B32046C4
:101FC00001F088F82068416949061AD5416921F075
:101FD00040014161606BA0B11B490165606BFEF778
:101FE0004DFC002810D0606B016DBDE870400847C3
:101FF000830610D58B060ED52046BDE8704001F053
:1020000077B82046FFF792FF70BD2046FFF78EFF9E
:102010000020E06370BD030606D50B0604D52046FC
:10202000BDE8704001F044B94006F3D54806F1D54B
:10203000D168204621F04001D160202184F8391078
:1020400000F0CAF870BD0000C530000870B504008B
:1020500004D094F83900002510B106E0012070BDCD
:1020600084F83850204600F023F8242084F8390002
:102070002068C16821F40051C160204601F084F855
:102080002068016921F4904101612068416921F0D3
:102090002A0141612068C16841F40051C160E563D3
:1020A000202084F8390084F83A00002070BD000038
:1020B00010B500681A4986B088422FD119480168C6
:1020C00041F001010160006800F001000590154831
:1020D0001430016841F0100101600068012100F036
:1020E000100005904FF4007000900220CDE901012E
:1020F000039007200C4C049069462046FEF71CFD17
:102100002015009069462046FEF716FD2520FEF7B3
:1021100043FE032211462520FEF74CFE06B010BDFB
:1021200000100140303802400000024090F83A3080
:10213000202B22D1F9B1F2B190F83830012B1CD00C
:1021400081628285C2850021C163222280F83A2003
:1021500080F838100168CA6842F48072CA60016869
:102160004A6942F001024A610068C16841F02001F9
:10217000C1600020704701207047022070470000B6
:1021800030B50068114988420CD1114841880A04D1
:1021900008D402464C0412784FF0000306D50A2AF0
:1021A00001D0438030BD41F400410DE00D2A09D03B
:1021B000C1F30D04074D491C89B22A554180C72936
:1021C000EFD830BD41F48041418030BD0010014066
:1021D00004000020A40100207047FEE7F0B51E486F
:1021E00087B0016841F001010160016801F001015F
:1021F0000591016841F0020101600068012400F0CE
:10220000020005904FF400450326CDE90054134F1A
:10221000CDE9024669463846FEF78EFC0A20CDE934
:102220000004CDE902460E4C69462046FEF784FCC8
:10223000012229463846FEF749FD002202212046A8
:10224000FEF744FD012208212046FEF73FFD6420F1
:1022500003F058F807B0F0BD3038024000000240EB
:102260000004024070B5012208210E48FEF72EFD41
:1022700001220D4ED50329463046FEF727FD0220E8
:1022800003F04EF80748103000680022C0F3C00485
:1022900029463046FEF71AFD022003F041F8204699
:1022A00070BD0000000402400000024070B5114CF7
:1022B000012208212046FEF709FD01220E4ED5031A
:1022C00029463046FEF702FD022003F029F80022DD
:1022D00008212046FEF7FAFC022003F021F8002234
:1022E00029463046FEF7F2FCBDE87040022003F0BC
:1022F00017B80000000402400000024010B50C4C6A
:10230000002208212046FEF7E1FC0122D103094802
:10231000FEF7DCFC022003F003F80122082120462E
:10232000FEF7D4FCBDE81040022002F0F9BF000027
:1023300000040240000002402DE9F047184D074616
:102340004FF40046002231462846FEF7BFFCDFF876
:10235000549000244FF0800828FA04F0384201D04D
:10236000012200E0002208214846FEF7AFFC0220CF
:1023700002F0D6FF012231462846FEF7A7FC0220D4
:1023800002F0CEFF002231462846FEF79FFC0220D5
:1023900002F0C6FF641CA4B2082CDDD3BDE8F087B0
:1023A0000000024000040240F0B500230A2430255A
:1023B00037261F4611E000BFB4EB107F02D905EBB2
:1023C000107C01E006EB107C01F813C001EB430C1C
:1023D00000015B1C8CF80170DBB29342ECD3F0BDC2
:1023E00010B5FFF7FBFE00216B2000F012F807216B
:1023F000192000F00EF806211A2000F00AF8182122
:102400001B2000F006F80121BDE810401C20AFF3AE
:10241000008070B50C460546FFF748FFD020FFF757
:102420008BFFFFF71FFF50B92846FFF785FFFFF727
:1024300019FF20B92046FFF77FFFFFF713FFBDE824
:102440007040FFF75BBF0000094808B5016841F420
:10245000001101600068002200F400100090114695
:102460002F20FEF7A7FCBDE808402F20FEF794BC04
:102470003038024030B587B014216846FDF7F0FED1
:1024800019480024016841F004010160016801F06D
:1024900004010591016841F080010160016801F0CB
:1024A00080010591016841F001010160016801F0BE
:1024B00001010591016841F00201016000680B4DC6
:1024C00000F002000590002204212846FEF7FEFBE2
:1024D000042000900120CDE90104694628460394B8
:1024E000FEF72AFB07B030BD303802400000024042
:1024F00010B58AB0002407941C2168460894FDF7A3
:10250000AFFE16481449C0E900145921C0E9024140
:102510000461FFF7BBFC08B1FEF7AFF92020CDE95D
:10252000070407A90D48FFF7E1FB08B1FEF7A5F97D
:102530006020CDE90004042004900822694602943A
:102540000648FFF73BFC08B1FEF797F90348FFF791
:102550000BFC0AB010BD000000080040AC060020D3
:1025600010B500220F49104801F0A8F908B1FEF794
:1025700084F90E490C4801F081FB08B1FEF77DF9A2
:102580000B49094800F0C2FF08B1FEF776F906488A
:1025900001F0CAFB002803D0BDE81040FEF76DB97A
:1025A00010BD0000180000204C070020640100202E
:1025B00068000020FEE7704730B40021074B0A4650
:1025C0005FF0000003EBC004401C62548028F9D384
:1025D000491C0829F4D330BC00F0B6B9AC02002085
:1025E0002DE9FF4F84B0884603913149CDE900823F
:1025F0004FF0000988681446CA464D4693464E4639
:10260000082802D0102846D105E008F1050904F198
:10261000070A062004E008F1070904F10F0A102058
:102620000290234841688D4203D10834DDF80C80C4
:10263000A3468168082902D0102913D109E007991F
:102640001C4A01EB410102EB4101294411F8C06C25
:1026500008E0194A079902EB01112944A1F58051BC
:1026600091F8006E0027F007114801D0026802E0DF
:102670000068D0B100222146404600F05BF87608A1
:10268000641C7F1C082FEED302986D1C08F1010812
:102690005C468542C5D3DDE900130498C0E9001902
:1026A000C0E9023A08B0BDE8F08F0122E3E700007C
:1026B0000C0000203C550008765700082DE9F04733
:1026C0008246002585B01F4691460E46284601E009
:1026D000401C6D1C395C0029FAD10024DFF85080C1
:1026E00009E0D8F804003B5D04FB00614A466846F7
:1026F000FFF776FF641CAC42F3D3D8F8082009EB4F
:102700000201491E0091D8F80400711E05FB001358
:102710004A46314601A802F0EDFE01AF97E80F00EE
:102720008AE80700CAF80C3005B0BDE8F087000061
:102730000C00002030B5CC0801F0070301259D40B6
:10274000EBB2054D05EBC005C808285C0AB118437B
:1027500000E09843285530BDAC02002070B5064615
:102760005FF0040404F1B000C0B200F003F90020EF
:1027700000F000F9102000F0FDF80025304600F0D0
:1027800065F96D1CEDB2802DF8D3641CE4B2082C01
:10279000E8D370BD70B5174E044600224021304684
:1027A000FEF794FA5FF0000504F08000000601D502
:1027B000012200E0002280213046FEF787FA600601
:1027C000040E022002F0ACFD012240213046FEF74B
:1027D0007DFA022002F0A4FD002240213046FEF7DF
:1027E00075FA022002F09CFD6D1CEDB2082DDBD3C2
:1027F00070BD0000000402403E4810B5016886B07C
:1028000041F00201016000683B4C00F002000590BD
:10281000C02000900120019002900320039069469F
:102820002046FEF789F9012240212046FEF74EFAA4
:10283000012280212046FEF749FA642002F062FD61
:10284000AE2000F097F8002000F094F8102000F07F
:1028500091F8402000F08EF8812000F08BF8FF20E6
:1028600000F088F8A12000F085F8C82000F082F878
:10287000A62000F07FF8A82000F07CF83F2000F0B0
:1028800079F8D32000F076F8002000F073F8D52016
:1028900000F070F8802000F06DF8D92000F06AF8A0
:1028A000F12000F067F8DA2000F064F8122000F060
:1028B00061F8DB2000F05EF8402000F05BF820209B
:1028C00000F058F8022000F055F88D2000F052F882
:1028D000142000F04FF8A42000F04CF8A62000F0DF
:1028E00049F8AF2000F046F80020FFF737FF06B0A8
:1028F00010BD0000303802400004024070B50024D2
:1029000000F0D8F9642002F0FDFC054D285D00F0D0
:102910008FFA641C222CF9D3BDE87040FFF74CBE3F
:10292000665D000810B5B0300C46C0B200F080FA09
:1029300004F0F0001030000900F07AFA04F00F0003
:10294000BDE8104000F074BA70B5094E00240021B3
:102950002046FFF7E7FF002506EBC500005D00F00D
:102960006CFA6D1C802DF7D3641C082CEFD370BD5E
:10297000AC02002070B5344C05460122802120466F
:10298000FEF7A4F9012240212046FEF79FF902201C
:1029900002F0C6FC002280212046FEF797F90220B3
:1029A00002F0BEFC002240212046FEF78FF978207D
:1029B000FFF7F0FE012240212046FEF787F90220B2
:1029C00002F0AEFC002240212046FEF77FF90020F5
:1029D000FFF7E0FE012240212046FEF777F90220B2
:1029E00002F09EFC002240212046FEF76FF92846A7
:1029F000FFF7D0FE012240212046FEF767F90220B2
:102A000002F08EFC002240212046FEF75FF90022F2
:102A100040212046FEF75AF9002280212046FEF789
:102A200055F9022002F07CFC012240212046FEF7ED
:102A30004DF9012280212046FEF748F9BDE870409B
:102A4000022002F06DBC00000004024070B5344C5E
:102A50000546012280212046FEF738F90122402157
:102A60002046FEF733F9022002F05AFC00228021B2
:102A70002046FEF72BF9022002F052FC00224021F2
:102A80002046FEF723F97820FFF784FE012240213B
:102A90002046FEF71BF9022002F042FC00224021F2
:102AA0002046FEF713F94020FFF774FE0122402173
:102AB0002046FEF70BF9022002F032FC00224021F2
:102AC0002046FEF703F92846FFF764FE0122402165
:102AD0002046FEF7FBF8022002F022FC00224021F3
:102AE0002046FEF7F3F8002240212046FEF7EEF8DC
:102AF000002280212046FEF7E9F8022002F010FCB7
:102B0000012240212046FEF7E1F8012280212046E3
:102B1000FEF7DCF8BDE87040022002F001BC0000C6
:102B2000000402400148FEF7C5BA0000E809002091
:102B30002DE9F041044600680E46016C00EB461595
:102B4000D5F8080B276920234FF40042012F08D045
:102B50002C4FB9424FD1010449D500BFC5F8082B0D
:102B60004DE0DFF8A4C05FEA007E04F5717711D56F
:102B7000614503D9000401D5C5F8082B2046FEF7AE
:102B8000B6FD3A460121206801F08CFC0820C5F80A
:102B9000080B34E05FEA806E02D5C5F8083B2EE0F2
:102BA00010F0280F2BD1614501D90004D6D4C6EB13
:102BB000C60004EB8000D5F8102BD0F80412C2F345
:102BC00012028A1AC0F81422D0F808221144C0F860
:102BD0000812F1B22046FEF753F986B9D4F8100274
:102BE00068B93A460121206801F05CFC07E08006E4
:102BF00001D5C5F8083BF1B22046FEF741F90020A7
:102C0000BDE8F0810A31544F0A30544F2DE9F84F96
:102C10000E46C1EBC60100EB810481460568D4E98C
:102C200014103C34884202D90120BDE8F88F081AFC
:102C3000A168814200D20846C01C870805EB4618EF
:102C40001BE000BFA0EB010AA068504500D28246FD
:102C50000AF10300870899F8100000901FFA8AF320
:102C6000F2B22846E16801F0A5FEE16801EB0A0036
:102C7000E060A16901EB0A00A061D8F8180980B2F0
:102C8000B84205D3D4E90501814201D20028D9D147
:102C9000D4E90501884208D806F00F0101208840D8
:102CA000D5F834188143C5F834180020BDE77047C3
:102CB000704700000C4800B5016887B041F0020180
:102CC00001600068694600F0020005904FF4407012
:102CD00000901120019001200290022003900348EF
:102CE000FDF72AFF07B000BD303802400004024063
:102CF0002DE9F041082507460026104C4FF0010849
:102D000013E0022002F00CFB380602D5C4F8A482BE
:102D100001E0C4F8A4627806070E022002F000FB6E
:102D2000C4F8A082022002F0FBFA6D1EEDB2C4F8D6
:102D3000A062E6D2BDE8F04100F050B80080404209
:102D400070B514460D46064600F010F808B1012093
:102D500070BD3046FFF7CCFF2846FFF7C9FF20467D
:102D6000FFF7C6FF00F022F8002070BD10B50E4C32
:102D70000120C4F8A402C4F8A002022002F0D0FA94
:102D8000D4F8240240B10020C4F8A402022002F0CA
:102D9000C7FAD4F8240208B1012010BD022002F0C5
:102DA000BFFA002010BD00000080404270B50A4C00
:102DB0000025C4F8A052022004F5287402F0B0FAED
:102DC000656001252560022002F0AAFA6560BDE871
:102DD0007040022002F0A4BA008040422DE9F04188
:102DE000124C64250026C4F8A062022004F5287461
:102DF00002F096FA01276760384602F091FA2760E0
:102E00000120A4F5287402F08BFA03E06D1E15F082
:102E1000FF0507D0D4F824020028F7D1C4F8A06237
:102E2000BDE8F081FFF7C2FF0120F9E700804042D2
:102E3000024600217820FFF783BF02464021782018
:102E4000FFF77EBFFDF74EBF30B593B03021684627
:102E5000FDF706FA14210CA8FDF702FA194800251F
:102E6000016841F080510160006800F080501190CD
:102E70001548016821F4404141F4004101600068B7
:102E8000022400F4404011900120009000040190C1
:102E90008001CDE90640042008904820CDE90904CE
:102EA00003200B906846FEF753FD0CA90F2081E824
:102EB0003100E002CDE90F0502210CA8FEF758FC15
:102EC00013B030BD40380240007000400548016832
:102ED00041F47001016003494FF0006080390860DF
:102EE0007047000088ED00E0F0B502681D4B1E4CF5
:102EF0009F031E4D1E4E984207D0B84205D0A042F7
:102F000003D0A84201D0B04204D122F0700C4A682C
:102F100042EA0C02984210D0B8420ED0A0420CD027
:102F2000A8420AD0B04208D0124CA04205D0124CA0
:102F3000A04202D0114CA04203D122F44074CA68CE
:102F400022434C6922F08002224302608A68C262F6
:102F50000A688262984201D10969016301214161D5
:102F6000F0BD0000000001400004004000080040E7
:102F7000000C004000400140004401400048014076
:102F800030B5026A22F001020262026A4368846973
:102F900024F073050C682C4322F002058A682A434A
:102FA0000A4DA8420BD122F00805CA6823F44073E9
:102FB0002A434D6922F004021D438B692B43436071
:102FC000846149684163026230BD00000000014035
:102FD00030B5026A22F010020262026A4368846914
:102FE0000D6824F4E64444EA05248D6822F02002AA
:102FF00042EA05120B4DA8420ED1CD6822F08002A4
:1030000042EA05124D6923F4406343EA85038D6962
:1030100022F0400243EA850343608461496881638A
:10302000026230BD0000014030B5026A22F48072B5
:103030000262036A4268C46923F4007324F07305D2
:103040000C682C438D6843EA05230C4DA8420ED131
:10305000CD6823F4006343EA05234D6922F440520E
:1030600042EA05128D6923F4806342EA0512426048
:10307000C4614968C163036230BD000000000140C3
:1030800030B5026A22F480520262046A4268C3695F
:103090000D6823F4E64343EA05238D6824F40054C5
:1030A00044EA0534064DA84204D14D6922F4804219
:1030B00042EA85124260C36149680164046230BD1E
:1030C0000000014010B5806B0021C185C184FEF76E
:1030D0002DFF10BD0168CA6822F49072CA600168B1
:1030E0004A6922F001024A61202180F83A107047B3
:1030F00010B590F83A10222901D0022010BD816845
:10310000B1F5805F11D00169002901681FD04968BD
:1031100001F07F03816A4A1C82620B70C18D491ED7
:103120000904090CC18518D02BE00269816A002AC4
:103130000268526805D0D2B20A80816A491C816255
:10314000ECE7C2F308020A80816A891CF7E74A6843
:10315000816A4B1C83620A70E0E70168CA6822F04A
:103160002002CA600168CA6822F48072CA600168DD
:103170004A6922F001024A61202180F83A10FEF7E4
:10318000FFFF002010BD00002DE9F041044600685B
:103190000169E26821F44051114301612169A0688D
:1031A000E26908436169114308432168CA6849F22A
:1031B0000C639A430243CA6020684169A26921F402
:1031C000407111434161E069192764253226B0F549
:1031D000004F354A354920684FF0000806D0884234
:1031E00001D0904236D1FEF773FB35E0884201D022
:1031F000904202D1FEF76CFB01E0FEF759FB6168DB
:103200004A18A0FB070148EB0803FCF7DFFF014663
:10321000B0FBF5F00201B1FBF5F06FF01803584375
:1032200001EB800006EBC000B0FBF5F000F0F80009
:1032300002EB4002B1FBF5F0584301EB800006EBD6
:10324000C000B0FBF5F000F0070021681044886072
:10325000BDE8F081FEF72CFB61688B0F8A00A0FBB4
:103260000701FCF7B3FF0146B0FBF5F06FF0180261
:10327000504301EB800006EB0010B0FBF5F000F0CE
:10328000F002B1FBF5F002EB0012B1FBF5F06FF0CC
:103290001803584301EB800006EB0010B0FBF5F07B
:1032A00000F00F00D1E700000014014000100140C1
:1032B00090F83910212901D0022070478168B1F5BA
:1032C000805F016A0BD04A1C026202680978516073
:1032D000C18C491E0904090CC1840ED017E009886D
:1032E0000268C1F30801516001690029016A02D036
:1032F000491C0162ECE7891CFBE70168CA6822F0FF
:103300008002CA600068C16841F04001C1600020CD
:103310007047000010B50848FEF70EFE0648FEF79D
:1033200006FE2028FAD1012204490348FEF7FEFEDA
:103330000028F8D110BD00006C020020040000201D
:103340002DE9F041D0F89832D0F89022DAB101EBB3
:10335000810400EB84040025E6694EB1C1EBC1078E
:1033600003EB87035B6CB6FBF3F703FB176323B137
:10337000C2F814520020BDE8F08100231A46E5612E
:1033800000F05FFCF6E70220F5E770B50546D0F8DF
:10339000904200F06BFBC4F80C02D5F8900248B1E3
:1033A000D5F89412D4F80402CA6804F50371904762
:1033B000002070BD022070BD70B50446002681213A
:1033C00000F09AFA002501212046E56200F094FA07
:1033D00082212046C4F8585100F08EFA2564D4F8B2
:1033E000900248B1D4F8940204F5247440688047F0
:1033F000206801F0B9FF2560304670BD10B5D0E9F6
:10340000A44159B194F80002FF2807D08B6894F8C2
:10341000012221469847FF2084F80002002010BDB9
:103420000A210180004870478C0000204321018060
:1034300000487047DC0000204321018000487047AD
:10344000980000204321018000487047200100209F
:103450002DE9F04104460026007C4FF40077012559
:1034600090B3402302228121204600F047FB4023F5
:10347000E56202220121204600F040FB08230322DE
:1034800082212046C4F8585100F038FB4FF40770F1
:10349000256401F0F9FFC4F89002F8B10546D4F8AC
:1034A0009402006880470020C5F81402C5F818028D
:1034B000207CD5F8042298B140230121204600F059
:1034C00029FB3046BDE8F081FFE73B46022281211F
:1034D000204600F013FB3B46E562CAE70126F0E711
:1034E0003B46EAE710B5D0F8901269B1027C002A99
:1034F000D1F8042205D04023012100F00BFB00206D
:1035000010BD4FF40073F7E7022010BD0246022001
:10351000002902D00020C2F894127047D0F890021F
:10352000C0F8041200207047D0F89002C0F81022B2
:10353000C0F80812002070472DE9FC410546D0F87C
:10354000907200208DF80000ADF80400064608785F
:103550000C4610F0600121D020293BD1E288AAB1AD
:103560000006607807D5D5F894128B6839469847DD
:10357000E288394626E087F80002A07987F8010240
:10358000E2883946284600F04FF828E0D5F8941232
:10359000607800228B682146984720E0607820B14F
:1035A0000A2809D00B2815D110E095F874020328D9
:1035B00010D1022201A905E095F87402032809D16F
:1035C00001226946284600F049F808E095F874029F
:1035D000032804D02146284600F01BF80226304676
:1035E000BDE8FC8110B5D0F88C22526890470020CD
:1035F00010BD134610B50A46002100F08BFA0020DA
:1036000010BD134610B50A46002100F01AFB002039
:1036100010BD10B50446802100F0F8FA2046BDE840
:103620001040002100F0F2BA10B50323C0F8482181
:10363000C0F86C32C0F84C2113460A46002100F055
:1036400069FA002010BD10B505210023C0F86C12E6
:103650001A46194600F05EFA002010BD10B502238C
:10366000C261C0F86C32026213460A46002100F0C3
:10367000E8FA002010BD10B504210023C0F86C1238
:103680001A46194600F0DDFA002010BD10B50A46B2
:10369000024903A000F0E2F8004810BDF00D002040
:1036A00043444320436F6E66696700001220088020
:1036B000004870473800002010B50A46024903A0B0
:1036C00000F0CCF8004810BDF00D0020434443202A
:1036D000496E7465726661636500000004200880AD
:1036E000004870473400002010B50A46024903A084
:1036F00000F0B4F8004810BDF00D002053544D699F
:1037000063726F656C656374726F6E6963730000DA
:1037100010B50A46024903A000F0A0F8004810BD09
:10372000F00D002053544D33322056697274756188
:103730006C20436F6D506F727400000010B51A203A
:1037400008800A480168001D0468001D0068081808
:1037500009D008220649FEF727FE05490422103148
:103760002046FEF721FE0248801E10BD107AFF1F82
:103770004E000020F8B5044648880D46010A082985
:103780004BD2DFE801F04A0409174A4A4048D4F80E
:103790008812207C0A6832E0207C02260028D4F8B7
:1037A0008C0205D0C16A684688470146467041E0F0
:1037B000816AF8E7C0B206282FD2DFE800F00308DC
:1037C0000D12171CD4F88812207C4A6817E0D4F830
:1037D0008812207C8A6812E0D4F88812207CCA689B
:1037E0000DE0D4F88812207C0A6908E0D4F8881229
:1037F000207C4A6903E0D4F88812207C8A696946F3
:103800009047014616E0207C38B9D4F88C02416B11
:1038100068468847F5E7207C20B129462046FFF717
:10382000F8FEF8BDD4F88C02016B68468847014663
:1038300007204870BDF8000048B1EA8852B18242C2
:1038400000D90246ADF800202046FFF707FFE888C0
:103850000028E6D12046FFF70EFFF8BD70B5002323
:1038600000281ED00446002502E06D1CEDB2641C49
:103870002678002EF9D1022404EB45041480127836
:10388000CA545B1C0322CA5400245B1C06E0CA54C1
:103890005B1CDAB28C54521CD3B2401C0278002A52
:1038A000F5D170BD01004FF0000004D0012901D016
:1038B000022901D0022070470120704710B580B165
:1038C000D0F88C3213B10023C0F88C3209B1C0F8A3
:1038D0008812012180F87412027000F0CBF80020E9
:1038E00010BD022010BD10B5D0F89802FDF7FCFA0B
:1038F000BDE81040FFF7D6BF10B5D0F89802FDF72D
:10390000CDFABDE81040FFF7CDBF2DE9F0411746D5
:10391000044651B1D4F88C0242691AB194F8740289
:10392000032851D00220BDE8F081D4F86C32002584
:1039300004F11400022B03D0042B3AD0C3B33CE0B3
:10394000D0E903639E4207D9F11AC1608AB23946B1
:103950002046FFF756FE12E08068B0FBF3F103FB50
:10396000110199B9984211D3D4F8701288420DD23E
:10397000002211462046FFF744FEC4F8705200238F
:103980001A461946204600F0C5F816E0D4F88C0215
:10399000C16829B194F87402032801D120468847F0
:1039A0008021204600F032F92046FFF74CFE04E06B
:1039B000FFE78021204600F029F994F878020128D9
:1039C00004D184F8785201E0204690470020AAE70D
:1039D00070B51546044649B1D4F88C0282691AB113
:1039E00094F87402032830D0022070BDD4F86C1211
:1039F00004F5A070032902D005291ED027E0D0E9E4
:103A000003218A420BD9531AC3600846834200D36C
:103A100003469AB229462046FFF7EBFD17E0D4F89B
:103A20008C02016929B194F87402032801D120465F
:103A300088472046FFF71FFE09E000200146C4F832
:103A40006C02204600F0E2F801E02046904700209A
:103A500070BD0020704710B5012180F87412D0F8B5
:103A60008C22017952689047002010BDD0F898024E
:103A7000FDF768BA10B5017839BB15490222C1F8C3
:103A80000404C0F898124FF0A04008600420486079
:103A90000020C1E90320C1E9062008624862C8622B
:103AA00008630846FDF740FD08B1FCF7E6FE8021FB
:103AB0000748FDF7B2F9402200210548FDF7B1F9AA
:103AC000802201210248FDF7ACF9002010BD000062
:103AD000E80900200A0601F07F01D0F89802C1EB46
:103AE000C10100EB810002D590F83E00704790F8CC
:103AF000FE017047002070470020704710B51C463B
:103B00001346D0F898022246FDF725FABDE810408A
:103B1000FFF7C8BE10B5D0F89802FDF74CFABDE823
:103B20001040FFF7BFBE70B5002204464023114687
:103B3000FFF7E4FF40260125C4F850613346002218
:103B400080212046C4F84451FFF7D8FF6662A56182
:103B500084F874520020C4F86C026060C4F87C02DF
:103B6000D4F8900228B1D4F88C0200214268204693
:103B70009047002070BD90F8751280F874120020F4
:103B8000704710B590F87412032904D1D0F88C1244
:103B9000C96901B18847002010BD01740020704739
:103BA00010B5D0F89802FDF78EFDBDE81040FFF784
:103BB00079BE70B5044600F52070054600F04AF85D
:103BC0000120C4F86C02B4F88602C4F8700294F8BC
:103BD000800210F01F010AD001290DD0022910D057
:103BE00000F08001204600F011F8002070BD294649
:103BF000204600F09EF8F8E72946204600F0CAF972
:103C0000F3E72946204600F01DF9EEE710B5D0F89D
:103C10009802FDF7F4F9BDE81040FFF743BE10B578
:103C2000D0F89802FDF76AFDBDE81040FFF73ABEF4
:103C300090F8741280F87512042180F87412002034
:103C4000704710B5D0F89802FDF713FABDE81040A0
:103C5000FFF728BE0A7802704A7842708A78CB78DB
:103C600002EB032242800A794B7902EB0322828025
:103C70008A79C97902EB0121C18070470246002090
:103C800011B1C2F88C1270470220704710B5D0F8FD
:103C90008C2202241AB11268904700B900242046F1
:103CA00010BD000070B50E461E4D8978044629707F
:103CB000012931D894F8740202280BD003280FD0C0
:103CC00031462046FFF7A5FC29782046BDE8704024
:103CD000FFF788BCD9B10320616084F8740209E061
:103CE00071B16068884212D0C1B22046FFF77AFCF9
:103CF000297861602046FFF7C9FF02280CD006E052
:103D0000022084F8740220466160FFF76BFC2046B5
:103D1000BDE87040FFF7AFBC31462046BDE87040BB
:103D2000FFF777BC8800002010B5FFF778FF002070
:103D300010BD2DE9F0410A78002612F0600208D08B
:103D4000202A01D0402A70D1D0F88C229268904766
:103D50006DE04B78002201250A2B66D2DFE803F0E4
:103D6000405D6557650805652C29FFF703FD5EE09A
:103D700004468888D8B9C888C8B94888802816D227
:103D800000F07F0794F87402032810D084F876724C
:103D900039462046FFF704FF2046FFF76CFC1FB1B1
:103DA000022084F8740242E084F874523FE0204616
:103DB0003BE0FFF777FF3AE0CB88012B35D190F855
:103DC0007432012B04D0022B02D0032B2DD104E03E
:103DD0008260012200F1080116E00122011D13E0BA
:103DE00090F87422012A03D0022A01D0032A1CD1A0
:103DF000CA88022A19D1C560D0F87C1209B1032102
:103E0000C160022200F10C01FFF728FC0FE0498895
:103E100001290CD1C0F87C5211E090F87432012BCA
:103E200008D0022B06D0032B04D0FFF7F2FB30465C
:103E3000BDE8F08149880129F9D1C0F87C22FFF75B
:103E40001AFCF4E72DE9F0410A46044610780027F1
:103E5000097910F060030AD0202B01D0402B50D1FB
:103E6000D4F88C0211468368204698478FE0C0F34F
:103E70004110012806D05078D0B301282AD0032859
:103E80003FD107E0D4F88C02114683682046BDE894
:103E9000F041184794F87402022802D0032872D126
:103EA0000AE071B380296ED02046FFF7AFFE802173
:103EB0002046FFF7ABFE6AE0508838B931B180295F
:103EC00004D0D08810B92046FFF7A0FE2046FFF7A7
:103ED000D2FB5CE094F874020228E2D0032852D1AD
:103EE000508898BB4806F1D02046FFF7FCFCEDE770
:103EF000FFE794F874020026022803D0032842D179
:103F000012E040E009B180293DD1080601F07F00B0
:103F100000EB800004EB800101D5143101E001F5D4
:103F2000A07102220E602AE0080601F00F0000EBEB
:103F3000800004EB80000AD5806920B301F07F0087
:103F400000EB800004EB800514350BE01FE0D0F897
:103F50004401C0B101F07F0000EB800004EB80055C
:103F600005F5A07541B1802906D02046FFF7B2FDC6
:103F700010B10120286000E02E6002222946204670
:103F8000FFF76CFB03E011462046FFF742FB384683
:103F9000BDE8F08170B5054608780C4610F0600069
:103FA00003D0202801D0402816D195F874020128AA
:103FB00003D0022801D003280ED1207901280BD884
:103FC000D5F88C02826828469047E188014306D1E3
:103FD0002846FFF750FB02E02846FFF71AFB0020B7
:103FE00070BD000070B50A78012302F00F054E780D
:103FF000AB401B4CD0F81C58012E17D045EA0343A8
:10400000C0F81C3800EB4210D0F8002B12040BD47F
:10401000D0F8002B0B89C978C3F30A031A4344EA8A
:1040200081410A43C0F8002B002070BD9BB21D43A4
:10403000C0F81C5800EB4210D0F800391B04F3D430
:10404000D0F800390D89C978C5F30A0589042B43D6
:1040500041EA82510B432343C0F80039E4E70000F2
:1040600000800010D0F800196FF30A01C0F80019A1
:10407000D0F80818C1F34101022905D1D0F8001980
:1040800041F00301C0F80019D0F8041841F4807120
:10409000C0F804180020704770B5044606990A9EBF
:1040A000049D0D98012916D0E06840F04000E060C2
:1040B000204600F02BF8A16B1EB321F48031A163E0
:1040C000012D07D1A16841F00601A160A16841F06E
:1040D0002001A16070BDA16B21F48031A163E16872
:1040E000094A1140E160E16821F44011E1600128D2
:1040F00003D1E06840F48010E060204600F006F84C
:10410000DEE741F48031DAE7BFFFBDFF01220C4951
:1041100002E0521C8A420BD80369002BF9DA0269CB
:1041200042F001020261012204E0521C8A4201D9DC
:10413000032070470369DB07F7D1002070470000B8
:10414000400D030030B50B784D78012203F00F04C9
:1041500002FA04F4012DD0F83C5817D025EA0444A3
:10416000C0F83C48D0F81C48097801F00F018A409B
:1041700024EA0241C0F81C1800EB4310D0F8001BE1
:104180000E4A1140C0F8001B002030BDA4B2A54368
:10419000C0F83C58D0F81C48097801F00F018A405B
:1041A00091B28C43C0F81C4800EB4310D0F80019C2
:1041B000034A1140C0F80019E6E700000078F3EF69
:1041C000007833EC10B5D0F8041821F00201C0F8E3
:1041D00004180320FCF79EFC002010BD10B5D0F899
:1041E000041841F00201C0F804180320FCF792FC07
:1041F000002010BD2DE9F04F0025DDE90BCB0E4668
:104200000446DDF84090099F2846294604EB8002C9
:10421000C2F80411401C0F28F8D3B9F1000F204652
:1042200018D0006820F400122260A06B40F4002235
:10423000A26308468846C4F8000ED4F80018204649
:10424000C4F80018BCF1010F10D0D0F8001841F0EC
:10425000030110E0806B40F40012A263A06B20F415
:104260000022A263A06B20F48022E1E7D0F80018BE
:104270000BB141F00101C0F80018102100F0A0FAC4
:1042800000B10125204600F08BFA00B1012540461F
:10429000C4F81088C4F81488C4F81C8800214FF0B2
:1042A00000634FF090484FF67F3A14E004EB411260
:1042B000D2F800C9BCF1000F06DA11B1C2F80089CA
:1042C00004E0C4F8003901E0C2F80009C2F810099E
:1042D000C2F808A9491C8E42E8D8002115E000BFA9
:1042E00004EB4112D2F800CBBCF1000F06DA11B199
:1042F000C2F8008B04E0C4F8003B01E0C2F8000BF8
:10430000C2F8100BC2F808AB491C8E42E8D8D4F8AA
:10431000101821F480722146C4F81028012F08D10A
:10432000134AC1F83028D1F83018124A1143C4F8A2
:104330003018A0616FF0804060611FB9A06940F043
:104340001000A061A0690C490843A061BBF1000FF7
:1043500003D0A06940F00800A061B9F1010F03D1BA
:10436000A06906490843A0612846BDE8F08F000017
:10437000000180000300010000383C800400004080
:10438000816821F0010181600020704770B50D78CF
:104390004E78434CEBB200EB4313012E1FD0D3F801
:1043A000100B6FF31200C3F8100BD3F8100B204062
:1043B000C3F8100B486908B188684861D3F8100B3E
:1043C00040F40020C3F8100BD3F8100B8C68C4F332
:1043D00012042043C3F8100B012A55D058E04E694F
:1043E000002ED3F8106932D06FF31206C3F81069AB
:1043F000D3F810692640C3F810694E698C68A6424C
:1044000000D94C61D3F8104944F40024C3F8104992
:10441000D3F810494E69C6F312063443C3F8104965
:10442000012A22D000EB4512D2F8003943F00443B0
:10443000C2F800394A6932B3D0F83428097801F05B
:104440000F03012199400A43C0F8342826E0264092
:10445000C3F81069D3F8104944F40024C3F8104994
:10446000D3F810496FF31204D8E7096919B100EBCA
:104470004512C2F8141900EB4510D0F8001941F0AC
:104480000441C0F8001909E0C86808B1C3F8140B6A
:10449000D3F8000B40F00440C3F8000B002070BDBF
:1044A000FFFF07E010B5036C134CA34203D9D0F80B
:1044B000003B002B1EDB0023C0F8103BD0F8103B64
:1044C00043F40023C0F8103BD0F8103B43F018032E
:1044D000C0F8103BD0F8103B43F0C043C0F8103B8D
:1044E000012907D1C0F8142BD0F8001B41F080211E
:1044F000C0F8001B002010BD0A30544F4A780B78DA
:10450000012A00EB43100BD0D0F8002B22F400124C
:10451000C0F8002BC978032914D0022912D017E063
:10452000D0F8002922F40012C0F80029C978032924
:1045300001D002290CD1D0F8001941F08051C0F807
:10454000001905E0D0F8001B41F08051C0F8001BB5
:10455000002070470A784B78D1B200EB4110012B54
:1045600012D0D0F8001B002906DB2AB1D0F8001BBE
:1045700021F08041C0F8001BD0F8001B41F400116D
:10458000C0F8001B00207047D0F80019002906DB96
:104590002AB1D0F8001921F08041C0F80019D0F8F4
:1045A000001941F40011C0F80019EBE7F8B50C78D8
:1045B0004F78774DE3B26FF0604600EB4313012F65
:1045C00026D0D3F8104B6FF31204C3F8104BD3F876
:1045D000104B2C40C3F8104B4C69002C74D08D68E4
:1045E0002C44641EB4FBF5F4D3F8105BA4B206EAC5
:1045F000C4463543C3F8105BD3F8105B8E6866433E
:10460000C6F312042543C3F8105B012A71D0A6E05B
:104610004F691FB3D3F810796FF31207C3F81079FD
:10462000D3F810792F40C3F810794F698D682F4463
:104630007F1EB7FBF5F506EAC545D3F8106935438B
:10464000C3F81059D3F810594E69C6F31206354312
:10465000C3F81059CD78012D10D01BE0D3F81069A4
:104660002E40C3F81069D3F8105945F40025C3F85B
:104670001059D3F810596FF3120509E0D3F8105907
:1046800025F0C045C3F81059D3F8105945F000552E
:10469000C3F81059012A18D000EB4413D3F800498D
:1046A00044F00444C3F80049CC78012C2FD04A6967
:1046B00062B3D0F83428097801F00F030121994042
:1046C0000A43C0F8342860E036E00A691AB100EB0A
:1046D0004413C3F81429C97801290FD1D0F8081858
:1046E000C90500EB4411D1F8002903D442F000526F
:1046F00002E030E042F08052C1F8002900EB4410A3
:10470000D0F8001941F00441C0F800193DE0D0F89C
:104710000848E405D3F8004902D444F0005401E00D
:1047200044F08054C3F8004900928A8A93B20A7810
:10473000C96800F03FF928E0D3F8104B8D68C5F345
:1047400012052C43C3F8104BD3F8104B44F400244B
:10475000C3F8104B59E7CA680AB1C3F8142BC978DB
:1047600001290CD1D0F80808C005D3F8000B02D4F9
:1047700040F0005001E040F08050C3F8000BD3F847
:10478000000B40F00440C3F8000B0020F8BD00000F
:10479000FFFF07E0816841F0010181600020704760
:1047A000002110220261054A491C914201D90320CF
:1047B00070470369DB06F7D400207047400D030003
:1047C0000022202343EA811101610549521C8A42DB
:1047D00001D90320704703699B06F7D40020704776
:1047E000400D0300D0F8080810F0060004D002289D
:1047F00003D0062801D00F2070470220704740697F
:1048000000F001007047D0F81818D0F81C080840D4
:1048100080B27047D0F81818D0F81C080840000C77
:10482000704710B5D0F81038D0F8342801F00F04D4
:1048300000EB4110E24002F00102D0F8080943EA1F
:10484000C212104010BD00EB4111D1F8081BD0F886
:104850001408084070474169806908407047D21CBD
:1048600010B59308002200F5805002E00468521C45
:1048700010C19A42FAD3084610BD10B5C26822F0A2
:10488000C042C260012902D029B1012010BDC16817
:1048900041F0005102E0C16841F08041C160322026
:1048A000FCF738F9002010BDD0F8002822F4FE6291
:1048B000C0F80028D0F800284FF4FE6303EA011185
:1048C0000A43C0F80028002070470000022A3ED1A9
:1048D000264A274B0A449A4201D20F2138E0254A42
:1048E000254B0A449A4201D20E2131E0234A244B3F
:1048F0000A449A4201D20D212AE0224A224B0A445C
:104900009A4201D20C2123E0204A214B0A449A42C8
:1049100001D20B211CE01F4A1F4B0A449A4201D2CC
:104920000A2115E01D4A1E4B0A449A420FD31D4A24
:104930001D4B0A449A4201D2082109E01B4A114446
:104940001B4A914201D2072102E0062100E0092121
:10495000C26822F47052C260C2684FF4705303EA16
:1049600081210A43C260002070470000405327FFA6
:1049700000350C00401E1BFF40420F0000DC0BFF07
:10498000804F1200808CF9FE20D6130060B6E5FE41
:1049900060E3160000D3CEFE40771B00C05BB3FE81
:1049A000C091210000CA91FE20753800E05459FEE4
:1049B000E09C410010B5029C64B9DB1C9C0800EB34
:1049C0000230002300F5805002E004C902605B1C45
:1049D000A342FAD3002010BDFEE700000FB4054B40
:1049E00010B503A9044A029800F0EAF810BC5DF87B
:1049F00014FB000055530008080000200907090EA9
:104A0000002804DB00F1E02080F80014704700F07B
:104A10000F0000F1E02080F8141D704702E008C884
:104A2000121F08C1002AFAD170477047002001E028
:104A300001C1121F002AFBD1704700002DE9FF5F62
:104A400082B00021DDE90430020DDDF840B00343FF
:104A500018D044F61050A2F2FF32424315141198B8
:104A600001281FD0A5EB0B00401C5FEA000A4FF0A5
:104A700000064E4FDFF83891B046504615D5CAF1C2
:104A8000000413E0119801244AA3012801D16FEA20
:104A90000B010298119AC0E90031C0E9024206B048
:104AA000BDE8F09FCBF10000DFE704460021404A5B
:104AB000491842EB0450CDE9001012E0E00707D09E
:104AC00032463B4640464946FBF77CFC80468946D9
:104AD00032463B4610461946FBF774FC06460F4625
:104AE0006410002CEAD1DDE90401DDE90023BAF10C
:104AF000000F06DAFBF766FC42464B46FBF762FC0A
:104B000005E0FBF7D1FC42464B46FBF7CDFC0446E3
:104B10000E460022284BFBF7F3FD03D84FF0FF3081
:104B2000014607E00022254B20463146FBF7A3FB58
:104B3000FBF7CDFD102409E0002C0ADB0A2200233C
:104B4000FBF744FB039B30321A55641E50EA010206
:104B5000F2D1641C039AC4F111031444119A012A7E
:104B600003D0012208430DD10AE0084304D00020FD
:104B70004FF0110B119072E7A3EB0B056D1E0DE0CA
:104B80005B4504DD4FF0000205F1010504E003DAA6
:104B90004FF00002A5F10105002AECD0029811990E
:104BA000C0E90231C0E9004579E700000000144087
:104BB0000000F03F300000000000F0430000E03F44
:104BC0002DE9FF4F95B09B468946064600250FE22A
:104BD000252877D100242746F84A0121059400E0D2
:104BE000044316F8013F203B01FA03F01042F7D1CD
:104BF00030782A2811D06FF02F033078A0F13002DE
:104C0000092A16D8059A44F0020402EB820203EB4B
:104C100042021044761C0590EFE759F8042B0592E8
:104C2000002A03DA504244F40054059044F0020490
:104C3000761C30782E2816D116F8010F44F00404A3
:104C40002A280DD06FF02F023078A0F13003092B05
:104C500009D807EB870302EB4303C718761CF3E779
:104C600059F8047B761C30786C280FD006DC4C2871
:104C700017D068280DD06A2814D104E0742810D009
:104C80007A280FD10DE044F400140AE044F48014B3
:104C900001E044F440147278824202D104F5801499
:104CA000761C761C307866280BD013DC582877D019
:104CB00009DC002875D04528F6D04628F4D04728CE
:104CC0001AD19DE118E0632835D0642879D0652891
:104CD00012D195E1702873D008DC6728F1D06928DB
:104CE0006FD06E280DD06F2806D1B5E073282CD078
:104CF000752875D0782874D05A46179990476D1C3E
:104D000075E1C4F30250022809D003280DD0D9F868
:104D1000001004280DD00D6009F1040967E1D9F8ED
:104D20000010EA17C1E90052F6E7D9F800100D802B
:104D3000F2E70D70F0E719F8041B8DF80010002061
:104D40008DF80100EA46012003E059F804AB4FF06A
:104D5000FF3061074FF0000102D40DE008F10101BE
:104D60008846B9420FDA8045F8DB1AF808100029A6
:104D7000F4D108E008F1010188468142FADB1AF813
:104D800008100029F6D105985B46A0EB08072146DC
:104D90003846179A00F094FA284400EB080507E01B
:104DA0004DE029E10DE01AF8010B5A46179990479A
:104DB000B8F10108F7D25B4621463846179A13E14D
:104DC00042E00A220092C4F302524FF0000A022A83
:104DD00008D059F804CB032A4FEAEC710AD00DE051
:104DE00029E02AE009F1070121F00702F2E802C1F7
:104DF000914609E00FFA8CFC4FEAEC71042A03D1CA
:104E00004FFA8CFC4FEAEC71002907DA0A460021C0
:104E1000DCF1000C61EB02012D2202E0220504D539
:104E20002B228DF80420012203E0E20701D020228A
:104E3000F7E7904659E00A2102E010220DE0102128
:104E40004FF0000A00910BE010224FF0000A44F0EE
:104E500004040827009203E008224FF0000A0092A1
:104E6000C4F30252022A05D059F804CB0021032AC8
:104E700008D009E009F1070121F00702F2E802C1B8
:104E8000914605E01FFA8CFC042A01D10CF0FF0CBE
:104E90004FF00008220728D5702806D0009B83F029
:104EA000100353EA0A0305D00EE040228DF80420D7
:104EB000012208E05CEA010206D030228DF80420CD
:104EC0008DF8050002229046009B83F0080353EA08
:104ED0000A030AD15CEA010201D1620705D530223A
:104EE0008DF804204FF001087F1E582804D034A00C
:104EF00003900EA802900DE036A0F9E753466046F5
:104F0000009AFBF763F984460398825C0298401E7E
:104F1000029002705CEA0100F0D1029806A9081A1A
:104F200000F1200A600702D524F4803400E0012754
:104F3000574502DDA7EB0A0000E0002000EB0A0164
:104F4000009005984144401A0590E00306D45B4662
:104F50002146179A059800F0B3F90544002706E0AA
:104F600001A85A46C05D179990476D1C7F1C4745A4
:104F7000F6DBE0030CD55B462146179A059800F056
:104F80009FF9054404E030205A46179990476D1C5C
:104F90000099481E00900029F5DC08E0029802996B
:104FA0005A460078491C0291179990476D1CBAF136
:104FB0000001AAF1010AF1DC65E100000928010005
:104FC000303132333435363738396162636465667F
:104FD0000000000030313233343536373839414241
:104FE000434445460000000000F058F90544761C93
:104FF000307800287FF4ECAD19B02846BDE8F08F7A
:10500000620700D4062709F1070222F0070CFCE82A
:105010000223E14603F000485FEA080C02D00FF2D9
:10502000702C0DE05FEA045C02D50FF2682C07E0FB
:105030005FEAC47C02D00FF2602C01E0AFF2700C8A
:105040004FF0FF3823F00043CDF850C065280CD056
:1050500006DC452809D046281DD047283DD13DE033
:10506000662818D067287ED138E00021112F01DB97
:10507000112000E0781CCDE9000106A90EA8FFF779
:10508000DDFCDDE90F010E9A03910021009207F18A
:10509000010A04914DE04FF000400097CDE9011066
:1050A00006A90EA8FFF7CAFCDDE90F0203920E9BCA
:1050B00011990022DDF80CA00093049211B9791C1B
:1050C00000EB010AB7EB0A0004D4C0F1FF3007F18E
:1050D000010A0490AAEB0700019044E0012F00DAD6
:1050E00001270021112F01DD112000E03846CDE914
:1050F000000106A90EA8FFF7A1FCDDE90F010E9A39
:105100000391002104910092BA4621070CD403991F
:10511000514500DA8A46BAF1010F05DD009AAAF17D
:105120000101515C302908D0B84202DA10F1040FB5
:1051300006DA0121CDE9011015E0AAF10101E9E744
:10514000002805DC049901440491AAEB000102E067
:10515000411C514500DD8A460499401A401C0190CB
:105160004FF000400290200704D40198504501DB25
:10517000CDF8048000208DF84F0002980DF14F0704
:10518000B0F1004F25D02B200E9002984FF002086E
:1051900000280CDA404202902D200E9007E00A21F0
:1051A0000298FBF7F0F93031029007F8011DB8F1D1
:1051B0000001A8F10108F2DC02980028EFD1791E65
:1051C0000E980870307800F0200040F0450007F895
:1051D000020D12A8C01B00F107081498007800B156
:1051E000012000EB0A01019801EBE07105984144B0
:1051F000401A401E0590E00306D45B462146179AEC
:10520000059800F05DF805441498007818B15A46E6
:10521000179990476D1CE00324D55B462146179AE9
:10522000059800F04DF805441CE00498002807DBC1
:10523000DDE90301884203DD0098405C179901E035
:10524000179930205A469047049805F10105401CF3
:1052500004900198401E019004D12E205A461799BF
:1052600090476D1CBAF10001AAF1010ADDDC05E0EE
:1052700017F8010B5A46179990476D1CB8F10001B9
:10528000A8F10108F4DC5B462146179A0598ABE6C5
:105290002D0000002B000000200000002DE9F0414F
:1052A000044600251E461746880404D405E0394606
:1052B0002020B0476D1C641EF9D52846BDE8F0815A
:1052C0002DE9F041044600251E469046C80301D54D
:1052D000302700E02027880404D505E04146384601
:1052E000B0476D1C641EF9D52846BDE8F08100006A
:1052F00010B504460420FCF7D9FC0148046010BD39
:105300000000002070B5054600244FF47A7603E0D3
:10531000304600F005F8641CAC42F9D370BD0000C3
:1053200070B54FF0E024002265690949A369096856
:105330004843A1699942FCD002D2A3EB010302E0E9
:10534000A5EB010633441A440B468242F1D370BDEB
:105350000000002003490A685206FCD5C2B24A6028
:10536000704700000010014010B5002821D0114BFB
:105370000022001F196803E0814203D80A464968E9
:105380000029F9D152B11368841A9C4204D10068F3
:1053900018441060104602E0506000E0186039B117
:1053A00002680B1A934203D10B681A4402604968E1
:1053B000416010BD9C0100201FB5FBF79BFCFDF771
:1053C00043FD4820FFF794FF4FF4E13000F09AF8D6
:1053D000FDF706F8FDF710FAFDF74CF8FDF734F885
:1053E000FDF7BEF8FDF784F8FDF788FA1AA314223A
:1053F00002216846FDF762F9FDF7A6FA4FF47A70CC
:10540000FFF780FF00246420FFF77CFF16A0FFF762
:10541000E5FA641C642CF6DB00246420FFF772FFBD
:1054200013A0FFF7DBFA641C642CF6DB0024642075
:10543000FFF768FF10A0FFF7D1FA641C642CF6DBBD
:1054400000246420FFF75EFF0DA0FFF7C7FA641C7D
:10545000642CF6DBD6E7000048656C6C6F2C576F48
:10546000726C64210000000055700D0A00000000FD
:10547000446F776E0D0A00004C6566740D0A0000DB
:1054800052696768740D0A00F0B50B30154D20F0B5
:1054900007010024144A0FE003688B420BD38B42B0
:1054A00005D95E1A43184768C3E9006700E04368FE
:1054B000136002C004E0021D10680028ECD12046F1
:1054C000002802D1286808B10020F0BD064A07482C
:1054D0001060074A121A22F00702C0E900240120D6
:1054E0002860D7E7A00100209C010020C4170020FD
:1054F000C01F002010B5029CC0E90013C0E90224BF
:1055000010BD00000B4910B5094AC1E90020002078
:105510008860C860086188610C2048610846FCF713
:1055200095FDBDE81040012203490248FCF7FEBD8D
:10553000001001406C020020040000200000000068
:1055400000000000002F000000000700070000140A
:105550007F147F1400242A7F2A1200626408132318
:1055600000364955225000000503000000001C22AF
:105570004100000041221C000014083E08140008ED
:10558000083E0808000000A060000008080808089D
:10559000000060600000002010080402003E514935
:1055A000453E0000427F40000042615149460021D3
:1055B00041454B31001814127F10002745454539ED
:1055C000003C4A4949300001710905030036494948
:1055D000493600064949291E000036360000000001
:1055E000563600000008142241000014141414144C
:1055F00000004122140800020151090600324959F5
:10560000513E007C1211127C007F49494936003E10
:1056100041414122007F4141221C007F49494941CB
:10562000007F09090901003E4149497A007F0808C5
:10563000087F0000417F4100002040413F01007F82
:1056400008142241007F40404040007F020C027F4E
:10565000007F0408107F003E4141413E007F090960
:105660000906003E4151215E007F09192946004686
:10567000494949310001017F0101003F4040403F5D
:10568000001F2040201F003F4038403F00631408A7
:105690001463000708700807006151494543000082
:1056A0007F41410000552A552A55000041417F00A5
:1056B000000402010204004040404040000001029A
:1056C0000400002054545478007F48444438003883
:1056D0004444442000384444487F0038545454180B
:1056E00000087E0901020018A4A4A47C007F08041D
:1056F00004780000447D4000004080847D00007FED
:10570000102844000000417F4000007C0418047809
:10571000007C0804047800384444443800FC242405
:1057200024180018242418FC007C080404080048ED
:105730005454542000043F444020003C4040207C0E
:10574000001C2040201C003C4030403C00442810FD
:105750002844001CA0A0A07C00444C5464440000D9
:10576000106E81000000FF00000000816E1000003C
:1057700040804080000000000000000000000000A9
:10578000000000000000000000F800000000000021
:1057900000333000000000100C06100C0600000062
:1057A00000000000000040C07840C0784000043F86
:1057B00004043F040400007088FC08300000001856
:1057C00020FF211E0000F008F000E018000000217A
:1057D0001C031E211E0000F00888700000001E211E
:1057E00023241927211010160E00000000000000CD
:1057F000000000000000000000E0180402000000AB
:1058000000071820400000020418E00000000040DB
:10581000201807000000404080F080404000020255
:10582000010F01020200000000F000000000010171
:10583000011F01010100000000000000000080B015
:1058400070000000000000000000000000000001E7
:105850000101010101010000000000000000003012
:1058600030000000000000000000806018040060AC
:1058700018060100000000E010080810E000000F0A
:10588000102020100F00001010F800000000002071
:10589000203F2020000000700808088870000030B9
:1058A0002824222130000030088888483000001861
:1058B000202020110E000000C02010F8000000077A
:1058C0000424243F240000F80888880808000019F0
:1058D000212020110E0000E0108888180000000F21
:1058E000112020110E0000380808C83808000000F8
:1058F000003F000000000070880808887000001C4D
:10590000222121221C0000E010080810E000000005
:10591000312222110F00000000C0C0000000000072
:105920000030300000000000008000000000000097
:10593000806000000000000080402010080000018E
:105940000204081020004040404040404000040451
:10595000040404040400000810204080000000201B
:10596000100804020100007048080808F000000058
:10597000003036010000C030C828E810E0000718E9
:10598000272423140B000000C038E0000000203C56
:1059900023020227382008F8888888700000203FFA
:1059A000202020110E00C030080808083800071811
:1059B00020202010080008F808080810E000203F08
:1059C000202020100F0008F88888E8081000203FE9
:1059D00020202320180008F88888E8081000203FBD
:1059E000200003000000C030080808380000071835
:1059F0002020221E020008F808000008F808203FB6
:105A0000210101213F20000808F8080800000020BB
:105A1000203F2020000000000808F8080800C0808F
:105A200080807F00000008F888C028180800203F08
:105A300020012638200008F8080000000000203F60
:105A400020202020300008F8F800F8F80800203F57
:105A5000003F003F200008F830C00008F808203F51
:105A6000200007183F00E01008080810E0000F10A1
:105A7000202020100F0008F808080808F000203F38
:105A8000210101010000E01008080810E0000F18D3
:105A9000242438504F0008F8888888887000203FF8
:105AA0002000030C302000708808080838000038F7
:105AB000202121221C00180808F8080818000000FE
:105AC000203F2000000008F808000008F808001F28
:105AD000202020201F000878880000C83808000017
