:020000040800F2
:10000000C03A0020A9010008371C0008511A000856
:10001000351C0008D9020008113600080000000055
:10002000000000000000000000000000C51D0008E6
:10003000C505000800000000C31D0008C71D00081A
:10004000C3010008C3010008C3010008C301000880
:10005000C3010008C3010008C3010008C301000870
:10006000C3010008C3010008C3010008C301000860
:10007000C3010008C3010008C3010008C301000850
:10008000C3010008C3010008C3010008000000000C
:10009000000000000000000000000000C301000894
:1000A000C3010008C3010008C3010008C301000820
:1000B000C3010008C3010008C3010008C301000810
:1000C000C3010008C3010008C3010008C301000800
:1000D000C3010008C3010008C301000800000000BC
:1000E000C3010008C3010008C301000800000000AC
:1000F000000000000000000000000000C301000834
:1001000000000000C3010008C3010008C30100088B
:1001100000000000000000000000000000000000DF
:10012000C3010008C3010008C3010008C30100089F
:10013000C3010008000000000000000000000000F3
:10014000000000000000000000000000391C000852
:10015000C3010008C3010008C3010008C30100086F
:10016000C3010008C30100080000000000000000F7
:10017000000000000000000000000000000000007F
:1001800000000000C30100080000000000000000A3
:10019000C3010008DFF80CD000F08CF800480047DD
:1001A000E9360008C03A0020064880470648004764
:1001B000FEE7FEE7FEE7FEE7FEE7FEE7FEE7FEE717
:1001C000FEE7FEE7511E0008950100082DE9F05FEB
:1001D0000546002092469B468846064681464024B6
:1001E0001BE0284641464746224600F053F8534656
:1001F0005A46C01A914110D311461846224600F0C3
:100200003AF82D1A67EB01084F46224601200021DB
:1002100000F031F817EB00094E41201EA4F1010453
:10022000DFDC484631462A464346BDE8F09F40EAB7
:1002300001039B0703D009E008C9121F08C0042A64
:10024000FAD203E011F8013B00F8013B521EF9D24B
:100250007047D2B201E000F8012B491EFBD2704773
:100260000022F6E710B513460A4604461946FFF782
:10027000F0FF204610BD202A04DB203A00FA02F1EC
:10028000002070479140C2F1200320FA03F3194384
:1002900090407047202A04DB203A21FA02F0002126
:1002A000704721FA02F3D040C2F120029140084386
:1002B00019467047064C074D06E0E06840F0010320
:1002C00094E8070098471034AC42F6D3FFF766FF76
:1002D000FC3700081C380008FEE7000010B5D0F815
:1002E0009022044692F81834022B07D0032B05D035
:1002F000052B03D0062B01D0092B13D1022082F845
:100300001804002382F8103482F8113482F8123471
:1003100082F8133482F8140482F81534C2F80034D9
:10032000C2F804340848407DC00607D5204602F0D4
:1003300086FC2046BDE8104002F024BB4888BDE89A
:10034000104000F055BA0000C400002030B40B4645
:10035000D0F89012DC8891F818248CB1022A01D0D0
:10036000052A11D15A88C1F80024DA880323C1F87C
:10037000042481F8183481F8143430BC01F0B4BD81
:10038000052A05D0022A03D030BC194601F0A1BDD0
:10039000012081F81904062281F81824002081F830
:1003A000110481F8120481F8130481F8142430BC7C
:1003B0007047000070B5D0F890420546002194F8CF
:1003C0001804032802D0062845D128E0D4F80404F4
:1003D00018B3042084F8180484F8111484F8121453
:1003E00084F8131484F81404D4F8000410B92078A5
:1003F000412809D0D5F89412D4F8080404F5826293
:100400008B690121984726E0D5F89412D4F80804A6
:1004100004F582628B690021F4E7052011E094F86D
:100420001904012801D038B115E0072084F8180418
:10043000012284F8112408E00B48007D40070AD50A
:10044000022084F8180484F8111484F8121484F833
:10045000131484F8140404F582612846BDE8704042
:10046000062201F05BBD0000C400002010B5044668
:10047000D0F890121848002281F81924007D400716
:100480000BD5062081F8180481F8112481F8122474
:1004900081F8132481F8140410BD082081F8180491
:1004A00081F8112481F8122481F8132481F81404AE
:1004B000204602F0C4FBD4F8940280688047BFF362
:1004C0004F8F06480168064A01F4E061114301605C
:1004D000BFF34F8F00BFFDE7C40000200CED00E02C
:1004E0000400FA0570B50B460546C988D0F890425D
:1004F0000020B1B394F81814022906D0092904D0B9
:10050000C4F80404C4F800044AE05988C4F800148C
:10051000DA88C4F8042401B3012936D9092384F800
:10052000183484F8110484F8120484F8130484F84D
:1005300014348802D4F80814A0F500600844D5F8F3
:1005400094124B69214698470146B4F8040482B2DC
:100550002846BDE8704001F0E1BC032A02D902211F
:1005600001E023E0092184F8181484F8110484F8C8
:10057000120484F8130484F814142070212060708D
:100580004120A07003222146E2E70F2184F81814CD
:1005900084F8110484F8120484F8130484F8141401
:1005A0002846BDE87040194601F093BC022184F84A
:1005B000181484F8110484F8120484F8130484F8DD
:1005C000141470BD70477047002229B101291AD058
:1005D00002291BD04FF440720E490B6823F440737C
:1005E0000B600B6813430B600A6822F0F8020A6084
:1005F0000A68022303EBC00002430A60086840F463
:100600008030086070474FF48072E5E74FF4007265
:10061000E2E70000103C02401348016889050FD54D
:10062000016821F400710160016841F4006101601A
:10063000016821F400610160016841F4007101600A
:10064000016849050FD5016821F4806101600168E6
:1006500041F480510160016821F48051016001681A
:1006600041F4806101607047003C024008490A681B
:1006700022F440720A600A6842F004020A600A68C2
:100680004FF4803343EA002002430A6070470000C1
:10069000103C0240064A136823F440731360136849
:1006A0001360136843F0010313600170704700008A
:1006B000103C0240084910B50C6824F440740C60EA
:1006C0000C6844F440740C600C6844F001040C6045
:1006D0000260436010BD0000103C0240074A1368EE
:1006E00023F440731360136843F48073136013683A
:1006F00043F001031360018070470000103C02408A
:10070000074A136823F440731360136843F40073BB
:100710001360136843F00103136001607047000029
:10072000103C02401C490868C2061C4805D5C26935
:1007300042F01002C26110220A600A68920605D5D2
:10074000C26942F00802C26120220A600A685206A9
:1007500005D5C26942F00402C26140220A600A68FB
:10076000120605D5C26942F00202C26180220A6007
:100770000A68D20506D5C26942F00102C2614FF48F
:1007800080720A600A68920705D5C26942F02002A9
:10079000C2610220086070470C3C02409C090020A6
:1007A00070B5114904460020C86100F0A7F906465B
:1007B0000E4D09E0601C07D024B100F09FF9801BAA
:1007C000A04201D9032070BD2868C003F2D4286874
:1007D000C00701D001202860286810F4F970F2D019
:1007E000FFF7A0FF012070BD9C0900200C3C0240D7
:1007F00070B5044600F082F90546601C02D004483A
:100800000078044400F07AF9401BA042FAD370BD8E
:10081000740000202DE9F047044622480F46017E6F
:1008200001290AD00121804601764CF25039484610
:10083000FFF7B6FF020003D02FE00220BDE8F087EB
:100840004FF0FF3038602068174D012801D0A668AE
:100850001CE0207C6168FFF709FF4846FFF7A0FF16
:100860000246286820F00400286014E0217C30460D
:10087000FFF7AAFE4846FFF793FF0200286820F022
:10088000FA00286001D03E6005E0761CD4E9021031
:100890000844B042EAD8FFF7BFFE002188F81810DC
:1008A0001046CBE79C090020103C02400348016839
:1008B00041F000410160002070470000103C024000
:1008C0002DE9F0471B4E05461446307E1F468946EB
:1008D000012808D0012030764CF250384046FFF70E
:1008E0005FFF18B114E00220BDE8F0879DB1012D33
:1008F00016D0022D19D022463B464846FFF7DAFEB5
:100900004046FFF74DFF0C490A6822F001020A60D9
:1009100000213176E8E7E1B24846FFF7BBFEEFE79A
:10092000A1B24846FFF7DAFEEAE721464846FFF75C
:10093000E7FEE5E79C090020103C02400749002043
:100940000A68002A09DA054A054B0C3A1360054B80
:1009500013600968002900DA01207047103C02404A
:1009600023016745AB89EFCD2DE9F84FDFF860B182
:1009700000224FF001084FF0030A4FF00F090BF16E
:10098000040E00BF0B6808FA02F42340A3426ED1A4
:100990004D68022D01D0122D0ED1D50800EB850C2B
:1009A000DCF820505607F70E09FA07F6B5430E6932
:1009B000BE402E43CCF82060066855000F790AFA35
:1009C00005FC07F0030726EA0C06AF403743076033
:1009D0004E68012E05D0022E03D0112E01D0122E0A
:1009E0000ED18668CF6826EA0C06AF403743876091
:1009F0004668A6430C79C4F3001494403443446021
:100A0000C6688C6826EA0C06AC403443C4604C6867
:100A1000E40056D52F4C256845F4804525602468B0
:100A200022F0030504F4804400942B4C2E19D6F8D0
:100A3000084895072F0F09FA07F5AC43274DA84240
:100A400001D1002515E0264DA84201D1012510E075
:100A5000244DA84201D102250BE0234DA84201D12B
:100A6000032506E0214DA84202D1042501E028E03B
:100A70000725BD402543C6F80858DBF800405D4611
:100A80004E689C43F60300D51C432C60DEF8004002
:100A900075464E689C43B60300D51C432C600C4D34
:100AA00008352C684E689C43F60200D51C432C6028
:100AB000074D0C352C684E689C43B60200D51C438C
:100AC0002C60521C102AFFF45DAFBDE8F88F0000C7
:100AD000003C014044380240003001400000024028
:100AE0000004024000080240000C024000100240D6
:100AF0000069084000D0012070470000014880686C
:100B00007047000074000020024881680278114498
:100B100081607047740000200B4810B5016841F4F3
:100B200000710160016841F480610160016841F475
:100B300080710160032000F06FF8002000F006F8DB
:100B400000F024F8002010BD003C024070B50D4DAF
:100B500004464FF47A712878B1FBF0F00A4909682D
:100B6000B1FBF0F000F060FF48B9102C07D2002272
:100B70002146501E00F030F800206C6070BD01204E
:100B800070BD000074000020800000200A4808B5F5
:100B9000016841F480410160006800F480400090E9
:100BA0000548001F016841F080510160006800F0B5
:100BB0008050009008BD000044380240002809DB46
:100BC00000F01F02012191404009800000F1E02067
:100BD000C0F8001170470000F0B40E4B1B680C46C3
:100BE000C3F30223C3F10705042D00D90425191D01
:100BF000072901D2002300E0DB1E012606FA05F1D9
:100C0000491E214099409E40761E16403143F0BC5B
:100C100002F008BD0CED00E0064900F0070208688C
:100C20004FF6FF03184040EA0220034A10430860D1
:100C3000704700000CED00E00000FA057047006806
:100C4000416200207047F0B50368586A39B19C6A68
:100C50004FF4827600EB144400204D1E0AE040EA77
:100C6000024098620FE006EB8007DF59401C04EB5E
:100C70001744C0B2A842F6D344EA02404FF480724F
:100C800002EB810158500020F0BDD0F8040401F0BF
:100C9000ECBCC1EBC10200EB8202D0F80404926C00
:100CA00001F03FBCC1EBC10200EB8202D0F80404AA
:100CB000D2F8082201F098BCD0F8040401F0D7BCA7
:100CC00070B5044601F00F006268904201D901201E
:100CD00070BD0B0601F00F01C1EBC10104EB8101F6
:100CE0004FF001024FF0000503D581F83D203C3163
:100CF00003E081F8FD5101F5FE718D70087094F8E4
:100D0000BC03012808D084F8BC23206802F0F0F965
:100D100084F8BC53002070BD022070BD2DE9F04165
:100D200004460F0601F00F00C0EBC00104EB810187
:100D30004FF001064FF0000503D581F83D603C31CE
:100D400003E081F8FD5101F5FE7108708A60CB70F7
:100D50004A7802B1C880022B00D10D7194F8BC030F
:100D6000012809D084F8BC63206801F075FF28468B
:100D700084F8BC53BDE8F0810220FBE770B50C4657
:100D800001F00F05C5EBC50100EB8101C1F8103280
:100D9000C1F808220023C1F8143281F8FD3181F82E
:100DA000FC51036901F5FE71012B00D10A61220794
:100DB000027C006803D002F0F3F9002070BD02F05D
:100DC000DFF8FAE770B504460D4601F00F006168E0
:100DD000884201D9012070BD29064FF000064FF06E
:100DE000010207D5C0EBC00104EB810181F83D2071
:100DF0003C3107E0C5EBC50104EB810181F8FD61E1
:100E000001F5FE718A70087094F8BC03012807D0C0
:100E100084F8BC23206802F097F9280702D007E085
:100E2000022070BD217C04F57172206802F034F953
:100E300084F8BC63002070BD70B50C4601F00F054E
:100E4000C5EBC50100EB81010B658A6400234B658E
:100E5000012381F83D3001F83C5F0369012B00D18B
:100E60000A612207027C006803D002F099F9002091
:100E700070BD02F085F8FAE72DE9FC5F05680446CD
:100E8000284602F0B6FA00287ED1206802F0DDFA8A
:100E9000002879D0206802F0D8FA800704D52068AD
:100EA000416901F002014161206802F0CEFA0103BC
:100EB00004F571704FF0010A4FF0080B009075D5E2
:100EC0000026206802F0A0FA0746DFF808946BE0DD
:100ED000F80767D0F1B2206802F0AFFA8046C00789
:100EE00007D005EB4611C1F808AB3146204600F0AB
:100EF000A9FE5FEA087032D52068016C00EB46104D
:100F00000191D0F8081B2269012A019A0FD0F24BF7
:100F10009A4214D1090403D54FF40041C0F8081BCC
:100F2000204600F0C6FA206901280FD013E04A4598
:100F300005D9090403D54FF40041C0F8081B204629
:100F400000F0B7FA01984845EDD804E02068012187
:100F5000009A02F0A1F805EB4611C1F808BB5FEA60
:100F6000C86004D505EB46111020C1F8080B5FEAF4
:100F700088600ED52069012804D120680121009ADB
:100F800002F08AF8202100E0A1E105EB4610C0F84C
:100F9000081B5FEA884005D505EB46104FF4005169
:100FA000C0F8081B7F08761C002F91D1206802F042
:100FB0004CFA40034FF000095FD5206802F01DFA9B
:100FC0000746002657E0F80753D0F1B2206802F038
:100FD00022FA8046C00726D006F00F020AFA02F075
:100FE000D5F834288243C5F8342805EB4610C0F8FC
:100FF00008A92069012807D1C6EBC60004EB8000D0
:10100000D0E9112111448164F1B22046FFF741FE7D
:101010002069012807D136B9206D20B92068012147
:10102000009A02F039F85FEA087003D505EB461123
:10103000C1F808B95FEAC86004D505EB4611102075
:10104000C1F808095FEA486004D505EB4610402165
:10105000C0F808195FEA887004D505EB4610022134
:10106000C0F808195FEA086003D53146204600F051
:1010700057FE7F08761C002FA5D1206802F0E5F905
:10108000002811DAD5F8040820F00100C5F804089A
:1010900094F8F40301282BD0204600F0EEF92068E4
:1010A000416901F000414161206802F0CEF900057C
:1010B0000BD5D5F80808C00702D0204600F040FA4A
:1010C0002068416901F400614161206802F0BDF9C6
:1010D000C00461D5D5F8040820F00101C5F8041852
:1010E0001021206802F066F900214FF67F321AE0E5
:1010F00084F8F49300212046FFF7A0FDCFE700BF5E
:1011000005EB4110C0F80829D0F8003923F400138A
:10111000C0F80039C0F8082BD0F8003B23F40013C6
:10112000C0F8003B491C60688842E9D8D5F81C0823
:1011300040F00111C5F81C18206B002828460DD07E
:10114000D0F8840840F00B00C5F88408D5F84408AE
:1011500040F00B012846C5F844180DE0D0F81408FB
:1011600042F22B010843C5F81408D5F8100840F0E6
:101170000B012846C5F81018D0F8000820F4FE61CD
:10118000C5F80018217C2068009A01F085FF2068CE
:10119000416901F480514161206802F056F98004F0
:1011A00015D5206801F098FD206802F015F9E0607F
:1011B00000F076FA0146227B206802F081F9204691
:1011C00000F048F92068416901F40051416120684C
:1011D00002F03BF9C00634D52068816921F0100186
:1011E00081612F6A07F00F00C0EBC00004EB80069E
:1011F000C7F3434006F5FE76022802D0062811D038
:101200001AE047F6F070074216D0C7F30A121746E5
:101210002846F16802F01DF9F0683844F060B069C2
:10122000384408E008222846009902F012F9B06913
:10123000C7F30A110844B0612168886940F01000C2
:101240008861206802F001F9000707D5204600F008
:1012500018F92168486900F008004861206802F028
:10126000F4F8C00208D50021204600F037F82168C4
:10127000486900F480104861206802F0E6F88002B6
:1012800008D50021204600F02DF82168486900F4B7
:1012900000104861206802F0D8F8400007D52046C9
:1012A000FFF7F3FC2068416901F08041416120684B
:1012B00002F0CBF840070AD520684568680702D5D8
:1012C0002046FFF7F9FC2068416829434160BDE8EA
:1012D000FC9F00000A30544F0A31544FD0F80404E8
:1012E00001F010BAD0F8040401F00EBA2DE9F04173
:1012F0008AB0040005D094F8BD032668002520B10B
:1013000008E001200AB0BDE8F08184F8BC53204613
:1013100000F05EF8032084F8BD03F06BC00500D434
:101320002561206801F026FE04F11001282288467C
:101330006846FEF77CFF94E80F0001F0E7FC022608
:10134000C8BB0021206802F092F8002001270EE0BF
:10135000C0EBC00104EB810181F83D7001F83C0F46
:10136000C880CD708D60CD60401CC0B24D61616899
:101370008142EDD8002011E0C0EBC00104EB8101F7
:1013800081F8FD5181F8FC0181F8FF51C1F8045248
:10139000C1F80852401CC0B2C1F8105261688142C5
:1013A000EAD8282241466846FEF741FF94E80F003C
:1013B00001F01AFD10B184F8BD63A2E784F838503B
:1013C00084F8BD73206801F003FD00209AE7000057
:1013D00010B586B0044614216846FEF741FF206828
:1013E000B0F1A04F2FD119480021026842F001024C
:1013F0000260006800F0010005904FF4C0500090BA
:101400000220CDE90101032003900A2004906946DF
:101410000F48FFF7A9FA0D48001D016841F080014F
:1014200001600A481430016841F48041016000689D
:10143000002200F48040059011464320FFF7CCFBCA
:101440004320FFF7BBFB06B010BD00003038024060
:101450000000024070B50446C0680125022801D092
:10146000FFF7B1F82946D4F8040401F09EF9D4F846
:101470000404BDE8704001F05EB9D0F8040401F046
:1014800082B9D0F8040401F084B910B5044690F88C
:10149000BC0301280BD0012084F8BC0384F8381069
:1014A000206801F0FBFF002084F8BC0310BD02207F
:1014B00010BDD0F8042400F57171104601F081B917
:1014C00010B50446006894F8BC13012906D0012128
:1014D00084F8BC13A16A012902D008E0022010BDE3
:1014E000A169012903D0816B41F4803181632068B7
:1014F00001F062FC206801F047FF002084F8BC0383
:1015000010BD70B5044690F8BC0301280ED0012030
:1015100084F8BC03206801F02DFD206802F044F837
:10152000002528B184F8BC53012070BD022070BD95
:10153000206801F04DFC84F8BC53002070BD000011
:1015400010B50446D0F8040401F083F92068D0F8FF
:10155000001E41F00101C0F8001E206A002804D0DE
:101560000248016841F00601016010BD10ED00E085
:101570002DE9F0470E46050065D0DFF81481D8F854
:101580000000F7B200F00F00B04207D288F80070F8
:10159000D8F8000000F00F00B04254D128683D4C4C
:1015A000810712D5400703D5206840F4E050206041
:1015B0002878000703D5206840F460402060206848
:1015C000A96820F0F000084320602878C0072DD0DB
:1015D000304968680839012812D0022813D003283E
:1015E00011D00968890700292DDA216821F003014B
:1015F00001432160FFF782FA814641F2883A0EE00A
:1016000009688903EFE709688901ECE7FFF776FAD3
:10161000A0EB0901514502D90320BDE8F0872068FD
:10162000696800F00C00B0EB810FEFD1D8F8001022
:10163000404601F00F01B14207D90770006800F081
:101640000F00B04201D00120E7E72878400705D518
:101650002068E96820F4E0500843206028780007FB
:1016600006D52068296920F4604040EAC100206066
:1016700000F01CF82168084AC1F30311515CC8400E
:10168000064908600020FFF761FA0020C5E7000066
:10169000003C024008380240A837000880000020C3
:1016A000014800687047000080000020154810B510
:1016B000006810F00C02144813D04110042A0FD017
:1016C000082A0ED10F4C241F2268236802F03F0223
:1016D0005B0207D52068C0F38810A0FB010106E07B
:1016E000084610BD2168C1F38811A1FB0001002349
:1016F000FEF76CFD2168C1F30141491C4900B0FBB4
:10170000F1F010BD083802400024F4002DE9F84F34
:10171000050076D02878DFF8F8B2BE4CC00749D073
:10172000DBF800105846C1F38101012908D0006898
:10173000C0F3810002280AD1201D0068400206D5AE
:101740002068800336D568680028E2D032E06868F7
:10175000B0F5803F10D0B0F5A02F206810D020F455
:1017600080302060206820F4802020606868A0B16C
:10177000FFF7C4F906460CE0206840F48030F4E737
:1017800040F480202060F7E7FFF7B8F9801B642859
:1017900073D820688003F7D50CE0FFF7AFF9064651
:1017A00005E000BFFFF7AAF9801B6428F0D8206885
:1017B0008003F7D42878DFF8608280074FF00009B3
:1017C0003ED5DBF80010584611F00C0F09D0006828
:1017D000C0F3810002280BD18D48001F0068400231
:1017E00006D42068800715D5E868012809D111E0E2
:1017F000E868B8B10120C8F80000FFF77FF9064695
:1018000005E002E1FFF77AF9801B0228C0D82068C2
:101810008007F7D52068296920F0F80040EAC10068
:1018200020600DE0C8F80090FFF768F9064604E074
:10183000FFF764F9801B02281FD820688007F7D4BF
:101840002878000722D5724E744869696C3671B1E8
:1018500001210160FFF752F9074604E0FFF74EF956
:10186000C01B022809D830688007F7D50EE0C0F801
:101870000090FFF743F9074605E083E0FFF73EF9E4
:10188000C01B02287ED830688007F7D4287840072C
:1018900068D5DFF87CA100270AF1380ADAF80000E1
:1018A000C0000BD4DAF8001041F08051CAF80010E3
:1018B000DAF80000012700F080500090584E3068A0
:1018C000C00510D4306840F480703060FFF716F91E
:1018D000009005E0FFF712F90099401A022851D84C
:1018E0003068C005F6D54A4EA868683601280FD082
:1018F0000528306810D020F001003060306820F0FA
:1019000004003060A868B8B1FFF7F8F800900FE065
:10191000306840F00100F4E740F004003060F7E781
:10192000FFF7ECF80099411A41F28830814264D8FF
:1019300030688007F4D50EE0FFF7E0F8009007E08C
:10194000FFF7DCF80099411A41F28830814254D8FF
:1019500030688007F4D42FB1DAF8001021F08051FC
:10196000CAF80010A869C0B3DBF80010C1F3810108
:1019700002294AD00228484607D0C8F86000FFF77D
:10198000BDF800E039E005463AE04746C8F8600097
:10199000FFF7B4F8064604E0FFF7B0F8801B022812
:1019A0002BD820688001F7D4D5E907010843A96A3C
:1019B0001C4A490802EB01416A6A41EA8211084364
:1019C00095F82C1040EA01611148001F01600120C8
:1019D0003866FFF793F8054605E014E0FFF78EF848
:1019E000401B022809D820688001F7D50BE000BF12
:1019F000FFF784F8401B022802D90320BDE8F88FC6
:101A000020688001F4D40020F8E70120F6E7000008
:101A1000083802400038024000004742800E47422A
:101A2000007000400000FFFF10B5401EB0F1807F45
:101A300001D3012010BD4FF0E02460610F21601739
:101A400001F0F0FD0020A06107202061002010BD02
:101A5000FEE70000F0B500230A24302537261F4694
:101A600011E000BFB4EB107F02D905EB107C01E060
:101A700006EB107C01F813C001EB430C00015B1C6A
:101A80008CF80170DBB29342ECD3F0BD10B5FEF7D9
:101A90000DFF002010BD000010B586B0044600F018
:101AA0003FF80021A4F100624FF48040824219D334
:101AB00014492144814201D2012113E012492144F9
:101AC000814201D202210DE010492144814201D21C
:101AD000032107E00E482044B0F5803F01D20421E5
:101AE00000E00521002000900120CDE90210022035
:101AF000049005A96846FEF78DFE002800D001205D
:101B000006B010BD00C0FFF70080FFF70040FFF7F0
:101B10000000FFF70020322353709070D0707047A0
:101B200010B5FEF70BFF0249F3200860002010BD3E
:101B30000C3C024010B5002304E000BF10F8014B3C
:101B4000CC545B1C9342F9D3084610BD2DE9F041FB
:101B500017460D460646002410E032592919002385
:101B60000220FEF7ADFE10B10120BDE8F081305932
:101B70002959884201D00220F7E7241DBC42ECD34A
:101B80000020F2E700B587B014216846FEF768FB35
:101B900011480021026842F004020260026802F06B
:101BA00004020592026842F080020260026802F0BC
:101BB00080020592026842F001020260006800F0B3
:101BC000010005900120CDE900010290694603481B
:101BD000FEF7CAFE07B000BD3038024000000240E8
:101BE00010B500220F49104800F062FC08B1FEF762
:101BF000EAFC0E490C4800F053FE08B1FEF7E3FC86
:101C00000B49094800F07CFA08B1FEF7DCFC0648F5
:101C100000F0B8FE002803D0BDE81040FEF7D3BCAA
:101C200010BD000008000020F800002088000020FF
:101C300058000020FEE770470148FFF71DB900007B
:101C4000940300202DE9F041044600680E46016C23
:101C500000EB4615D5F8080B276920234FF4004206
:101C6000012F08D02C4FB9424FD1010449D500BFF4
:101C7000C5F8082B4DE0DFF8A4C05FEA007E04F54C
:101C8000717711D5614503D9000401D5C5F8082B3A
:101C90002046FFF70EFC3A460121206801F0FCF9CE
:101CA0000820C5F8080B34E05FEA806E02D5C5F85D
:101CB000083B2EE010F0280F2BD1614501D900041C
:101CC000D6D4C6EBC60004EB8000D5F8102BD0F8B4
:101CD0000412C2F312028A1AC0F81422D0F80822A1
:101CE0001144C0F80812F1B22046FEF7DBFF86B9B6
:101CF000D4F8100268B93A460121206801F0CCF905
:101D000007E0800601D5C5F8083BF1B22046FEF792
:101D1000C9FF0020BDE8F0810A31544F0A30544F0A
:101D20002DE9F84F0E46C1EBC60100EB8104814658
:101D30000568D4E914103C34884202D90120BDE87A
:101D4000F88F081AA168814200D20846C01C870893
:101D500005EB46181BE000BFA0EB010AA068504548
:101D600000D282460AF10300870899F8100000901B
:101D70001FFA8AF3F2B22846E16801F037FCE16805
:101D800001EB0A00E060A16901EB0A00A061D8F84C
:101D9000180980B2B84205D3D4E90501814201D2C5
:101DA0000028D9D1D4E90501884208D806F00F01EE
:101DB00001208840D5F834188143C5F83418002034
:101DC000BDE770477047FEF79FBE000030B593B087
:101DD00030216846FEF744FA14210CA8FEF740FAB9
:101DE00019480025016841F080510160006800F049
:101DF000805011901548016821F4404141F40041A0
:101E000001600068022400F440401190012000901D
:101E1000000401908001CDE906400420089048208C
:101E2000CDE9090403200B906846FFF76FFC0CA96D
:101E30000F2081E83100E002CDE90F0502210CA856
:101E4000FFF796FB13B030BD4038024000700040F1
:101E50001048016841F4700101600F48016841F0C9
:101E6000010101600C4A00210832116002680B4B2D
:101E70001A400260031D0A4A1A60026822F4802296
:101E8000026005480C30016002495806803908603C
:101E90007047000088ED00E000380240FFFFF6FECA
:101EA0001030002410B5D0F88C22526890470020E2
:101EB00010BD134610B50A46002100F033FC002087
:101EC00010BD134610B50A46002100F0CBFC0020DF
:101ED00010BD10B50446802100F0A0FC2046BDE8EE
:101EE0001040002100F09ABC10B50323C0F848212F
:101EF000C0F86C32C0F84C2113460A46002100F0AD
:101F000011FC002010BD10B505210023C0F86C1293
:101F10001A46194600F006FC002010BD10B5022339
:101F2000C261C0F86C32026213460A46002100F01A
:101F300099FC002010BD10B504210023C0F86C12DC
:101F40001A46194600F08EFC002010BD0020704794
:101F50000020704770B50446D0F890020025022199
:101F6000C0F80054C0F8045480F8181480F81054D5
:101F700080F81414D4F8900248B1D4F8940204F50F
:101F8000247480688047206801F086FB256000206B
:101F900070BD002070477CB5D0F8904294F81814BA
:101FA000042902D0072963D064E0D4F80014002586
:101FB00089B101293AD9D0F894028902D4F80824C9
:101FC000A1F5006111440369D4F804242046984720
:101FD00060B302207CBD217821B1212907D041299D
:101FE00016D019E0D4F8041401291FD014E0D4F855
:101FF0000414052910D16078A17800EB0120E17864
:1020000000EB0140217900EB0160C4F808040DE009
:10201000D4F80414052919D0C4F804540121ADF8EA
:1020200006108DF800506946FFF753FFC4F80454BA
:102030000320C4F8005484F8180484F8115484F878
:10204000125484F8135484F8140413E06178A278CD
:1020500001EB0221E27801EB0241227901EB0261FE
:10206000C4F80814D0F89402C26808469047AFE755
:10207000FEF7FCF900207CBD1B2101800048704761
:10208000C40000200A21018000487047E0000020C1
:1020900010B5062907D8D0F894020449006800F06A
:1020A000D6F9024810BD002010BD0000BC09002078
:1020B00010B5044640F21C4001F040FBC4F8900209
:1020C000B0B100F5806000210A4AC0E90221016038
:1020D0004160417602220276017441748174C174B8
:1020E00002754175D4F8940240688047002800D0FA
:1020F000022010BD00C0000800207047002070477B
:1021000009B1C0F894120020704700207047000009
:10211000F8B500260D46ADF800602F78D0F8901283
:1021200032463346344617F0600760D0202F6ED118
:102130006E780222072E6AD2DFE806F05504080CFA
:102140000F3236002946FEF701F983E02946FEF7F3
:10215000C9F97FE0FEF72EF97CE091F818040A280F
:1021600011D00A2081F818040E2281F8102481F879
:10217000113481F8123481F8133481F8140400BF4B
:1021800081F8153466E081F8182481F8103481F85C
:10219000113481F8123481F8133481F81424EFE7F4
:1021A000012201F583613EE091F81804022807D06E
:1021B000032805D0052803D0062801D0092849D1D5
:1021C00081F8182481F8103481F8113481F8123420
:1021D00081F8133481F8142481F81534C1F80034DF
:1021E000C1F8043436E02946FEF778F832E06B781F
:1021F00033B1062B0CD00A2B18D00B2B26D11DE0A7
:1022000090F87412032921D1022269460BE01DE0E7
:1022100069882123B3EB112F04D1EA88104E092AD3
:1022200000D909223146FFF779FE13E090F87422B5
:10223000032A0BD1012201F20C41F4E76A8812F063
:10224000FF0F03D190F87432032B05D02946FFF716
:1022500040FE02242046F8BDD0B2C1F80C04F9E7D4
:10226000D600002010B50A46024903A000F0EFF89E
:10227000004810BD9C07002044465520436F6E6601
:10228000696700001220088000487047280000207D
:1022900010B50A46024903A000F0D9F8004810BD65
:1022A0009C07002044465520496E74657266616340
:1022B00065000000042008800048704724000020CA
:1022C00010B50A46024903A000F0C1F8004810BD4D
:1022D0009C07002053544D6963726F656C6563748D
:1022E000726F6E696373000010B50A46024903A05D
:1022F00000F0ADF8004810BD9C07002053544D334A
:102300003220446F776E4C6F6164204669726D773E
:1023100061726520557064617465000010B51A2003
:1023200008800A480168001D0468001D006808183C
:1023300009D008220649FFF78DFB05490422103118
:102340002046FFF787FB0248801E10BD107AFF1F52
:102350003E000020F8B5044648880D46010A0829C9
:1023600054D2DFE801F05304091753534951D4F80C
:102370008812207C0A6819E0207C02260028D4F804
:102380008C0205D0C16A68468847014646704AE01B
:10239000816AF8E7C1B2062926D2DFE801F0030A14
:1023A0000F14191ED4F88812207C4A686946904799
:1023B00018E0D4F88812207C8A68F7E7D4F88812ED
:1023C000207CCA68F2E7D4F88812207C0A69EDE71D
:1023D000D4F88812207C4A69E8E7D4F88812207C77
:1023E0008A69E3E701461EE0C1B2D4F88C026A466E
:1023F000836B20469847F5E7207C38B9D4F88C02E7
:10240000416B68468847EDE7207C20B1294620468D
:10241000FFF75FFDF8BDD4F88C02016B6846884772
:10242000014607204870BDF8000048B1EA8852B163
:10243000824200D90246ADF800202046FFF76EFD2B
:10244000E8880028E6D12046FFF775FDF8BD70B595
:10245000002300281ED00446002502E06D1CEDB2CA
:10246000641C2678002EF9D1022404EB4504148064
:102470001278CA545B1C0322CA5400245B1C06E079
:10248000CA545B1CDAB28C54521CD3B2401C027882
:10249000002AF5D170BD01004FF0000004D00129E1
:1024A00001D0022901D002207047012070470000AE
:1024B00010B580B1D0F88C3213B10023C0F88C3243
:1024C00009B1C0F88812012180F87412027000F07E
:1024D000D9F8002010BD05A001F09CF805A001F07E
:1024E00099F80AA001F096F8022010BD4552524F0B
:1024F000523A2000496E76616C69642044657669C1
:1025000063652068616E646C650000000A0000006D
:1025100010B5D0F89802FEF7D3FBBDE81040FFF7E6
:10252000BABF2DE9F0411746044651B1D4F88C02E8
:1025300042691AB194F87402032851D00220BDE810
:10254000F081D4F86C32002504F11400022B03D082
:10255000042B3AD0C3B33CE0D0E903639E4207D9D1
:10256000F11AC1608AB239462046FFF7AAFC12E090
:102570008068B0FBF3F103FB110199B9984211D3C4
:10258000D4F8701288420DD2002211462046FFF77F
:1025900098FCC4F8705200231A461946204600F0F1
:1025A000C1F816E0D4F88C02C16829B194F874021D
:1025B000032801D1204688478021204600F02EF9CB
:1025C0002046FFF7A0FC04E0FFE78021204600F052
:1025D00025F994F87802012804D184F8785201E0B2
:1025E000204690470020AAE770B51546044649B139
:1025F000D4F88C0282691AB194F87402032830D09E
:10260000022070BDD4F86C1204F5A070032902D02A
:1026100005291ED027E0D0E903218A420BD9531A9D
:10262000C3600846834200D303469AB22946204637
:10263000FFF73FFC17E0D4F88C02016929B194F848
:102640007402032801D1204688472046FFF773FC17
:1026500009E000200146C4F86C02204600F0DEF8D4
:1026600001E020469047002070BD0020704710B563
:10267000012180F87412D0F88C22017952689047B9
:10268000002010BD10B5017839BB15490222C1F8F0
:102690000404C0F898124FF0A0400860042048607D
:1026A0000020C1E90320C1E9062008624862C8622F
:1026B00008630846FEF71AFE08B1FDF784FF802183
:1026C0000748FEF7BCFA402200210548FEF7BBFA96
:1026D000802201210248FEF7B6FA002010BD00005A
:1026E000940300200A0601F07F01D0F89802C1EBA4
:1026F000C10100EB810002D590F83E00704790F8D0
:10270000FE017047002070470020704710B51C463E
:102710001346D0F898022246FEF700FBBDE81040B1
:10272000FFF7B9BE10B5D0F89802FEF727FBBDE859
:102730001040FFF7B0BE70B500220446402311469A
:10274000FFF7E4FF40260125C4F85061334600221C
:1027500080212046C4F84451FFF7D8FF6662A56186
:1027600084F874520020C4F86C026060C4F87C02E3
:10277000D4F8900228B1D4F88C0200214268204697
:102780009047002070BD90F8751280F874120020F8
:10279000704710B590F87412032904D1D0F88C1248
:1027A000C96901B18847002010BD0174002070473D
:1027B00010B5D0F89802FEF768FEBDE81040FFF7AC
:1027C0006ABE70B5044600F52070054600F053F867
:1027D0000120C4F86C02B4F88602C4F8700294F8C0
:1027E000800210F01F010AD001290DD0022910D05B
:1027F00000F08001204600F011F8002070BD29464D
:10280000204600F0C4F8F8E72946204600F0F0F929
:10281000F3E72946204600F043F9EEE710B5D0F87B
:102820009802FEF7CFFABDE81040FFF734BE10B5AE
:10283000D0F89802FEF744FEBDE81040FFF72BBE2B
:1028400010B5D0F89802FEF75CFEBDE81040FFF727
:1028500022BE90F8741280F87512042180F8741268
:102860000020704710B5D0F89802FEF7E5FABDE8F1
:102870001040FFF710BE0A7802704A7842708A78DA
:10288000CB7802EB032242800A794B7902EB0322D8
:1028900082808A79C97902EB0121C18070470000EA
:1028A00010B50246002011B1C2F88C1210BD05A06F
:1028B00000F0B0FE05A000F0ADFE0AA000F0AAFEF8
:1028C000022010BD4552524F523A2000496E7661A7
:1028D0006C696420436C6173732068616E646C651D
:1028E000000000000A00000010B5D0F88C2202247D
:1028F0001AB11268904700B90024204610BD0000AC
:1029000070B50E461E4D897804462970012931D8CC
:1029100094F8740202280BD003280FD031462046C9
:10292000FFF7D7FA29782046BDE87040FFF7BABA1A
:10293000D9B10320616084F8740209E071B1606864
:10294000884212D0C1B22046FFF7ACFA2978616004
:102950002046FFF7C9FF02280CD006E0022084F8C9
:10296000740220466160FFF79DFA2046BDE8704082
:10297000FFF7E1BA31462046BDE87040FFF7A9BA3B
:102980008400002010B5FFF752FF002010BD2DE994
:10299000F0410A78002612F0600208D0202A01D007
:1029A000402A70D1D0F88C22926890476DE04B7825
:1029B000002201250A2B66D2DFE803F0405D65574F
:1029C000650805652C29FFF7C5FC5EE0044688888C
:1029D000D8B9C888C8B94888802816D200F07F07BF
:1029E00094F87402032810D084F876723946204691
:1029F000FFF7DEFE2046FFF79EFA1FB1022084F8A3
:102A0000740242E084F874523FE020463BE0FFF756
:102A100077FF3AE0CB88012B35D190F87432012B47
:102A200004D0022B02D0032B2DD104E082600122BE
:102A300000F1080116E00122011D13E090F8742254
:102A4000012A03D0022A01D0032A1CD1CA88022AF3
:102A500019D1C560D0F87C1209B10321C1600222EE
:102A600000F10C01FFF75AFA0FE0498801290CD157
:102A7000C0F87C5211E090F87432012B08D0022B80
:102A800006D0032B04D0FFF724FA3046BDE8F081CE
:102A900049880129F9D1C0F87C22FFF74CFAF4E704
:102AA0002DE9F0410A46044610780027097910F014
:102AB00060030AD0202B01D0402B50D1D4F88C02D7
:102AC00011468368204698478FE0C0F341100128E3
:102AD00006D05078D0B301282AD003283FD107E090
:102AE000D4F88C02114683682046BDE8F0411847AF
:102AF00094F87402022802D0032872D10AE071B35C
:102B000080296ED02046FFF789FE80212046FFF7FE
:102B100085FE6AE0508838B931B1802904D0D08868
:102B200010B92046FFF77AFE2046FFF704FA5CE072
:102B300094F874020228E2D0032852D1508898BB3E
:102B40004806F1D02046FFF7E3FCEDE7FFE794F8F5
:102B500074020026022803D0032842D112E040E08C
:102B600009B180293DD1080601F07F0000EB80000B
:102B700004EB800101D5143101E001F5A0710222BE
:102B80000E602AE0080601F00F0000EB800004EB65
:102B900080000AD5806920B301F07F0000EB80003F
:102BA00004EB800514350BE01FE0D0F84401C0B100
:102BB00001F07F0000EB800004EB800505F5A075B7
:102BC00041B1802906D02046FFF78CFD10B10120CD
:102BD000286000E02E60022229462046FFF79EF979
:102BE00003E011462046FFF774F93846BDE8F0814E
:102BF00070B5054608780C4610F0600003D0202818
:102C000001D0402816D195F87402012803D002287B
:102C100001D003280ED1207901280BD8D5F88C02D9
:102C2000826828469047E188014306D12846FFF78D
:102C300082F902E02846FFF74CF9002070BD10B57C
:102C400004460179D0F88C0242682046904720461D
:102C5000FFF7F6FD002010BD70B50A78012302F0E1
:102C60000F054E78AB401B4CD0F81C58012E17D0E6
:102C700045EA0343C0F81C3800EB4210D0F8002BA3
:102C800012040BD4D0F8002B0B89C978C3F30A03C4
:102C90001A4344EA81410A43C0F8002B002070BD6A
:102CA0009BB21D43C0F81C5800EB4210D0F800390D
:102CB0001B04F3D4D0F800390D89C978C5F30A058F
:102CC00089042B4341EA82510B432343C0F8003966
:102CD000E4E7000000800010D0F800196FF30A014B
:102CE000C0F80019D0F80818C1F34101022905D134
:102CF000D0F8001941F00301C0F80019D0F8041809
:102D000041F48071C0F804180020704770B5044683
:102D100006990A9E049D0D98012916D0E06840F09E
:102D20004000E060204600F02BF8A16B1EB321F4B8
:102D30008031A163012D07D1A16841F00601A16096
:102D4000A16841F02001A16070BDA16B21F4803128
:102D5000A163E168094A1140E160E16821F4401192
:102D6000E160012803D1E06840F48010E060204673
:102D700000F006F8DEE741F48031DAE7BFFFBDFF7F
:102D800001220C4902E0521C8A420BD80369002B35
:102D9000F9DA026942F001020261012204E0521CE8
:102DA0008A4201D9032070470369DB07F7D100206D
:102DB00070470000400D030010B5D0F8041821F052
:102DC0000201C0F804180320FDF712FD002010BD19
:102DD00010B5D0F8041841F00201C0F8041803201F
:102DE000FDF706FD002010BD2DE9F04F0025DDE9BF
:102DF0000BCB0E460446DDF84090099F2846294635
:102E000004EB8002C2F80411401C0F28F8D3B9F17A
:102E1000000F204618D0006820F400122260A06B3A
:102E200040F40022A26308468846C4F8000ED4F895
:102E300000182046C4F80018BCF1010F10D0D0F8DB
:102E4000001841F0030110E0806B40F40012A2630F
:102E5000A06B20F40022A263A06B20F48022E1E7A3
:102E6000D0F800180BB141F00101C0F80018102192
:102E700000F0A0FA00B10125204600F08BFA00B165
:102E800001254046C4F81088C4F81488C4F81C888A
:102E900000214FF000634FF090484FF67F3A14E066
:102EA00004EB4112D2F800C9BCF1000F06DA11B1EF
:102EB000C2F8008904E0C4F8003901E0C2F8000952
:102EC000C2F81009C2F808A9491C8E42E8D80021AE
:102ED00015E000BF04EB4112D2F800CBBCF1000FAB
:102EE00006DA11B1C2F8008B04E0C4F8003B01E03F
:102EF000C2F8000BC2F8100BC2F808AB491C8E4296
:102F0000E8D8D4F8101821F480722146C4F81028AB
:102F1000012F08D1134AC1F83028D1F83018124ACD
:102F20001143C4F83018A0616FF0804060611FB990
:102F3000A06940F01000A061A0690C490843A0619D
:102F4000BBF1000F03D0A06940F00800A061B9F107
:102F5000010F03D1A06906490843A0612846BDE8D6
:102F6000F08F0000000180000300010000383C8069
:102F700004000040816821F0010181600020704759
:102F800070B50D784E78434CEBB200EB4313012E35
:102F90001FD0D3F8100B6FF31200C3F8100BD3F847
:102FA000100B2040C3F8100B486908B188684861CD
:102FB000D3F8100B40F40020C3F8100BD3F8100B1B
:102FC0008C68C4F312042043C3F8100B012A55D0B7
:102FD00058E04E69002ED3F8106932D06FF3120614
:102FE000C3F81069D3F810692640C3F810694E6918
:102FF0008C68A64200D94C61D3F8104944F40024EF
:10300000C3F81049D3F810494E69C6F31206344389
:10301000C3F81049012A22D000EB4512D2F800393A
:1030200043F00443C2F800394A6932B3D0F8342877
:10303000097801F00F03012199400A43C0F83428B0
:1030400026E02640C3F81069D3F8104944F4002460
:10305000C3F81049D3F810496FF31204D8E709698F
:1030600019B100EB4512C2F8141900EB4510D0F865
:10307000001941F00441C0F8001909E0C86808B11E
:10308000C3F8140BD3F8000B40F00440C3F8000B56
:10309000002070BDFFFF07E010B5036C134CA34286
:1030A00003D9D0F8003B002B1EDB0023C0F8103BF7
:1030B000D0F8103B43F40023C0F8103BD0F8103B8D
:1030C00043F01803C0F8103BD0F8103B43F0C04366
:1030D000C0F8103B012907D1C0F8142BD0F8001B11
:1030E00041F08021C0F8001B002010BD0A30544F71
:1030F0004A780B78012A00EB43100BD0D0F8002B54
:1031000022F40012C0F8002BC978032914D0022938
:1031100012D017E0D0F8002922F40012C0F80029DC
:10312000C978032901D002290CD1D0F8001941F047
:103130008051C0F8001905E0D0F8001B41F0805123
:10314000C0F8001B002070470A784B78D1B200EB22
:103150004110012B12D0D0F8001B002906DB2AB148
:10316000D0F8001B21F08041C0F8001BD0F8001BF4
:1031700041F40011C0F8001B00207047D0F800197E
:10318000002906DB2AB1D0F8001921F08041C0F8EF
:103190000019D0F8001941F40011C0F80019EBE74C
:1031A000F8B50C784F78774DE3B26FF0604600EBDE
:1031B0004313012F26D0D3F8104B6FF31204C3F83A
:1031C000104BD3F8104B2C40C3F8104B4C69002C1B
:1031D00074D08D682C44641EB4FBF5F4D3F8105BF6
:1031E000A4B206EAC4463543C3F8105BD3F8105BBB
:1031F0008E686643C6F312042543C3F8105B012AA8
:1032000071D0A6E04F691FB3D3F810796FF312079E
:10321000C3F81079D3F810792F40C3F810794F69AB
:103220008D682F447F1EB7FBF5F506EAC545D3F838
:1032300010693543C3F81059D3F810594E69C6F3D5
:1032400012063543C3F81059CD78012D10D01BE07C
:10325000D3F810692E40C3F81069D3F8105945F41B
:103260000025C3F81059D3F810596FF3120509E07F
:10327000D3F8105925F0C045C3F81059D3F81059A8
:1032800045F00055C3F81059012A18D000EB44133B
:10329000D3F8004944F00444C3F80049CC78012C29
:1032A0002FD04A6962B3D0F83428097801F00F03AF
:1032B000012199400A43C0F8342860E036E00A69E9
:1032C0001AB100EB4413C3F81429C97801290FD1AE
:1032D000D0F80818C90500EB4411D1F8002903D42F
:1032E00042F0005202E030E042F08052C1F8002982
:1032F00000EB4410D0F8001941F00441C0F8001967
:103300003DE0D0F80848E405D3F8004902D444F081
:10331000005401E044F08054C3F8004900928A8AC6
:1033200093B20A78C96800F061F928E0D3F8104B2D
:103330008D68C5F312052C43C3F8104BD3F8104B1E
:1033400044F40024C3F8104B59E7CA680AB1C3F823
:10335000142BC97801290CD1D0F80808C005D3F87E
:10336000000B02D440F0005001E040F08050C3F860
:10337000000BD3F8000B40F00440C3F8000B002012
:10338000F8BD0000FFFF07E0816841F001018160A6
:1033900000207047002110220261054A491C914219
:1033A00001D9032070470369DB06F7D4002070477A
:1033B000400D03000022202343EA811101610549E9
:1033C000521C8A4201D90320704703699B06F7D437
:1033D00000207047400D0300D0F8080810F00600E8
:1033E00004D0022803D0062801D00F207047022005
:1033F0007047406900F001007047D0F81818D0F805
:103400001C08084080B27047D0F81818D0F81C0883
:103410000840000C704710B5D0F81038D0F83428A8
:1034200001F00F0400EB4110E24002F00102D0F87D
:10343000080943EAC212104010BD00EB4111D1F857
:10344000081BD0F81408084070474169806908409B
:103450007047D21C10B59308002200F5805002E09E
:103460000468521C10C19A42FAD3084610BD10B528
:10347000C26822F0C042C260012902D029B10120F5
:1034800010BDC16841F0005102E0C16841F08041C7
:10349000C1603220FDF7ACF9002010BDD0F8002843
:1034A00022F4FE62C0F80028D0F800284FF4FE6332
:1034B00003EA01110A43C0F8002800207047000009
:1034C000022A3ED1264A274B0A449A4201D20F21B2
:1034D00038E0254A254B0A449A4201D20E2131E0B8
:1034E000234A244B0A449A4201D20D212AE0224A5F
:1034F000224B0A449A4201D20C2123E0204A214B5C
:103500000A449A4201D20B211CE01F4A1F4B0A4475
:103510009A4201D20A2115E01D4A1E4B0A449A42E2
:103520000FD31D4A1D4B0A449A4201D2082109E0DB
:103530001B4A11441B4A914201D2072102E0062195
:1035400000E00921C26822F47052C260C2684FF4E0
:10355000705303EA81210A43C260002070470000D3
:10356000405327FF00350C00401E1BFF40420F0058
:1035700000DC0BFF804F1200808CF9FE20D6130078
:1035800060B6E5FE60E3160000D3CEFE40771B0078
:10359000C05BB3FEC091210000CA91FE20753800C7
:1035A000E05459FEE09C410010B5044600214FF65E
:1035B0007F3000BF04EB4112C2F80809C2F8080BC3
:1035C000491C0F29F6D30020C4F81008C4F81408C9
:1035D000C4F81C082046FFF7DDFE002805D1204670
:1035E000BDE810401021FFF7E5BE10BD10B5029CEC
:1035F00064B9DB1C9C0800EB0230002300F580500E
:1036000002E004C902605B1CA342FAD3002010BD93
:10361000FEE70000014A024900F023B885360008A1
:10362000EC0000200907090E002804DB00F1E0206F
:1036300080F80014704700F00F0000F1E02080F8DF
:10364000141D704702E008C8121F08C1002AFAD1F1
:1036500070477047002001E001C1121F002AFBD112
:1036600070472DE9F04116460F460446002503E059
:103670003946B047641C6D1C20780028F8D12846D4
:10368000BDE8F08138B504468DF800006946032096
:10369000ABBE204638BD000010B5002821D0114B2C
:1036A0000022001F196803E0814203D80A464968D6
:1036B0000029F9D152B11368841A9C4204D10068E0
:1036C00018441060104602E0506000E0186039B104
:1036D00002680B1A934203D10B681A4402604968CE
:1036E000416010BDF0000020FDF716FAFEF76EFBFA
:1036F000FEF748FA6420FDF77BF801210B48FDF73F
:10370000F7F901280ED10A4801680A4A1140B1F1BF
:10371000005F07D14168084A51601160006880F37A
:1037200008888847FEF75CFAFEE7000000000240C8
:1037300000C000080000FE2F00000020F0B50B3094
:10374000154D20F007010024144A0FE003688B4256
:103750000BD38B4205D95E1A43184768C3E900674B
:1037600000E04368136002C004E0021D10680028F6
:10377000ECD12046002802D1286808B10020F0BD15
:10378000064A07481060074A121A22F00702C0E9E9
:10379000002401202860D7E7F4000020F00000207A
:1037A000C40A0020C02A0020000000000000000021
:1037B000010203040607080940496E7465726E61D0
:1037C0006C20466C6173682020202F3078303830B0
:1037D00030303030302F30332A3031364B612C309E
:1037E000312A3031364B672C30312A3036344B6732
:1037F0002C30312A3132384B670000001C38000869
:1038000000000020F80000004436000814390008C9
:10381000F8000020C83900005436000800000000FD
:103820000000000085220008B5220008C12200081F
:10383000E92200081D2300086522000891220008E3
:10384000040309041201000200000040830411DF98
:1038500000020102030100001A0300000000000042
:103860000000000000000000000000000000000058
:1038700000000000B8370008211B00088D1A00085E
:10388000991A00084D1B0008351B0008151B00087D
:103890000100000010000000000000000024F400FF
:1038A00000000000B1200008551F00081121000889
:1038B000971F0008931F00084D1F0008511F0008A4
:1038C0000B210008F9200008FD20000879200008DD
:1038D0007920000879200008852000089120000840
:1038E00009021B00010102C0320904000000FE01B0
:1038F000020609210BFF0000041A01000A0600025B
:103900000000004001000000000000000000000076
:0439100000000000B3
:040000050800019559
:00000001FF
